:100000000C941D0E0C94450E0C94450E0C94450E4C
:100010000C94450E0C94450E0C94450E0C94450E14
:100020000C94450E0C94450E0C9427190C949619BB
:100030000C94450E0C94450E0C94450E0C94450EF4
:100040000C94450E0C94450E0C94450E0C94450EE4
:100050000C94450E0C94450E0C94450E0C94C81B44
:100060000C94450E0C94450E0C94450E0C94450EC4
:100070000C94450E0C94450E0C94450E0C94450EB4
:100080000C94121C0C94450E0C94450E0C94450EC9
:100090000C94450E0C94450E0C94450E0C94450E94
:1000A0000C94450E0C94450E0C94450E0763423695
:1000B000B79BD8A71A39685618AEBAAB558C1D3CF9
:1000C000B7CC5763BD6DEDFD753EF6177231BF00BD
:1000D0000000803F08000000BE922449123EABAAF7
:1000E000AA2ABECDCCCC4C3E00000080BEABAAAA52
:1000F000AA3E00000000BF000000803F000000009A
:1001000000084178D3BB4387D1133D190E3CC3BDD2
:100110004282AD2B3E68EC8276BED98FE1A93E4C7F
:1001200080EFFFBE01C4FF7F3F00000000000A0A0D
:10013000FFFFFFFF0101FFFFFFFF030303030202B5
:1001400003030303FFFFFF0F0FC3C3FFFFFF0303FF
:100150000303030303030303FFFFFFC3C30F0FFFE7
:10016000FFFF03030303030303030303FFFFFF0373
:1001700003CFCFFFFFFF03030303030303030303C3
:10018000FFFFFF03033F3FFFFFFF030303030303DF
:1001900003030303FFFFFF0303F3F3FFFFFF030367
:1001A0000303030303030303FFFFFF87878787FF1F
:1001B000FFFF03030303030303030303FF037901A7
:1001C00001CDCD0101FF030302020202020202037C
:1001D000FFFFDF8F07030327FFFF03030303030270
:1001E00002030303FFFFFFFFFFFFFFFFFFFF030308
:1001F00003030303030303031440FF0101B98989C7
:1002000009890101FF0101010101010101FFFF0055
:1002100000EA2AAAE6000000FF027282826212123D
:10022000E203FF000016041206000000FF00CC22CB
:100230002222CC000000FF000000000000000000AF
:10024000FF00C445C555DC000000FF202020202011
:1002500020202020FF000104010501000000FF0014
:100260000077115171010000FF0000000000000044
:100270000000FF000012051505000000FF0000004F
:10028000000000000000FF808080808080808080EF
:10029000FF00000000000000000000000000003E21
:1002A0005B4F5B3E3E6B4F6B3E1C3E7C3E1C183CE6
:1002B0007E3C181C577D571C1C5E7F5E1C00183C42
:1002C0001800FFE7C3E7FF0018241800FFE7DBE78B
:1002D000FF30483A060E2629792926407F05050772
:1002E000407F05253F5A3CE73C5A7F3E1C1C0808CE
:1002F0001C1C3E7F14227F22145F5F005F5F060993
:100300007F017F006689956A606060606094A2FFEB
:10031000A29408047E040810207E201008082A1CDD
:1003200008081C2A08081E101010100C1E0C1E0CA9
:1003300030383E3830060E3E0E0600000000000049
:10034000005F00000007000700147F147F14242AB8
:100350007F2A12231308646236495620500008078A
:100360000300001C2241000041221C002A1C7F1CAB
:100370002A08083E080800807030000808080808AD
:10038000000060600020100804023E5149453E0014
:10039000427F400072494949462141494D33181472
:1003A000127F1027454545393C4A494931412111C1
:1003B00009073649494936464949291E00001400B3
:1003C00000004034000000081422411414141414D6
:1003D000004122140802015909063E415D594E7C34
:1003E0001211127C7F494949363E414141227F41E9
:1003F00041413E7F494949417F090909013E414147
:1004000051737F0808087F00417F41002040413F31
:10041000017F081422417F404040407F021C027F40
:100420007F0408107F3E4141413E7F090909063E95
:100430004151215E7F091929462649494932030164
:100440007F01033F4040403F1F2040201F3F403876
:10045000403F631408146303047804036159494D51
:1004600043007F4141410204081020004141417F87
:1004700004020102044040404040000307080020FD
:10048000545478407F2844443838444444283844FD
:1004900044287F385454541800087E090218A4A434
:1004A0009C787F0804047800447D40002040403D53
:1004B000007F1028440000417F40007C04780478CD
:1004C0007C080404783844444438FC182424181860
:1004D000242418FC7C0804040848545454240404BC
:1004E0003F44243C4040207C1C2040201C3C4030A9
:1004F000403C44281028444C9090907C4464544CD8
:100500004400083641000000770000004136080032
:1005100002010204023C2623263C1EA1A161123ADC
:100520004040207A38545455592155557941215429
:10053000547841215554784020545579400C1E522E
:1005400072123955555559395454545939555454D2
:10055000580000457C410002457D420001457C4039
:10056000F0292429F0F0282528F07C545545002056
:1005700054547C547C0A097F4932494949323248F3
:10058000484832324A4848303A4141217A3A42405A
:100590002078009DA0A07D39444444393D4040402E
:1005A0003D3C24FF2424487E4943662B2FFC2F2BFF
:1005B000FF0929F620C0887E0903205454794100A0
:1005C00000447D413048484A32384040227A007A1F
:1005D0000A0A727D0D19317D2629292F28262929FD
:1005E000292630484D40203808080808080808081F
:1005F000382F10C8ACBA2F102834FA00007B000046
:1006000008142A142222142A14089500220095AAFC
:10061000005500AAAA55AA55AA000000FF00101014
:1006200010FF00141414FF001010FF00FF1010F052
:1006300010F0141414FC001414F700FF0000FF0065
:10064000FF1414F404FC141417101F10101F101FB3
:100650001414141F00101010F0000000001F1010E0
:1006600010101F10101010F010000000FF101010DC
:10067000101010101010FF10000000FF140000FFF9
:1006800000FF00001F10170000FC04F414141710E2
:10069000171414F404F40000FF00F71414141414D5
:1006A0001414F700F7141414171410101F101F144B
:1006B0001414F4141010F010F000001F101F0000AC
:1006C000001F14000000FC140000F010F01010FFD8
:1006D00010FF141414FF141010101F00000000F07D
:1006E00010FFFFFFFFFFF0F0F0F0F0FFFFFF000052
:1006F000000000FFFF0F0F0F0F0F38444438447CF9
:100700002A2A3E147E02020606027E027E026355FB
:100710004941633844443C04407E201E2006027E4A
:10072000020299A5E7A5991C2A492A1C4C7201725C
:100730004C304A4D4D303048784830BC625A463DC6
:100740003E494949007E0101017E2A2A2A2A2A447B
:10075000445F444440514A444040444A51400000B0
:10076000FF0103E080FF000008086B6B08361236BB
:100770002436060F090F060000181800000010109C
:10078000003040FF0101001F01011E00191D17125A
:10079000003C3C3C3C0000000000F0F89C8E87834D
:1007A000878E9CF8F00000FEFF0303030303070E8F
:1007B000FCF80000FEFF0303030303070EFCF80030
:1007C00000FFFF00000000000000FFFF0000FEFF30
:1007D0008383838383C7EE7C380000F8FC0E070315
:1007E0000303070EFCF800003F7FE0C08080C0E0FC
:1007F0007F3FFFFF01010101010101FFFF0000FF39
:10080000FF0C0C0C0C1C3E77E3C100007FFFC0C046
:10081000C0C0C0E0703F1F00001F3F70E0C0C0C0FC
:10082000E0703F1F00007FFFC1C1C1C1C1E3773E3F
:100830001C00001F3F70E0C0C0C0E0703F1F000000
:1008400000000001FFFF01000000D5F08D14A1C8D9
:1008500081CFD9F1AF200005040E0A0A0A0E0E045A
:100860000406040E020E080E0E080C080E08080EF0
:100870000A0A0E080E020E0E0A0E020608080808E2
:100880000E0E0A0E0A0E0E080E0A0E0000000000E0
:100890000000000000000000000000000000000058
:1008A0000000000000000000000000000000000048
:1008B0000000000000000000000000000000000038
:1008C0000000000000000000000000000000000028
:1008D0000000000000000000000000804080408018
:1008E0004080408040804080408000000000000048
:1008F0000000000000000000F0E0C0C0C0C0C0C0A8
:10090000C4FCFC000000000000000000000000002B
:1009100000000000000000000000000000000000D7
:1009200048287848487800000000000000000000D7
:100930000000000000000000C84848D8083000004F
:1009400000000000000000000000000000000000A7
:100950000000000000000000000050AA55AA55AA9F
:1009600055AA55AA55AA55AAFFFFFFFEF800000098
:100970000000000000000000C3C1C0C0C0C0C0C073
:10098000C8CFCF0000000000000000000000000001
:1009900000000000000000000000000000007040A7
:1009A00077555577000000000000000000000000AF
:1009B00000000000000000000505151D00000000FB
:1009C0000000000000000000000040A040A040A087
:1009D00040A040A040A040A040A855AA55AA55AAB2
:1009E00055AA55AA55AA55FEFFFFFFFF01000000BA
:1009F00000000000000000001F1F100003030000A3
:100A0000909F9F0000000000000000000000000018
:100A100000000000000000000000000000000000D6
:100A2000171155770000000000000080000038A872
:100A3000A8B808080000000052525ED2121E000042
:100A4000000000000000000040A855AA55AA55AAC1
:100A500055AA55AA55AA55AA55AA55AA55AA55AA9E
:100A600055AA55AA55AAFFFFFFFFFF03000000008B
:100A700000000000000000007E3C1818181818182C
:100A800018FFFF0000000000000000000000000050
:100A90000000000000000000808000000000000056
:100AA000A494BC24A43C0000000000010202030244
:100AB0000202000000000000DC54555D1010000030
:100AC0000000000000000000050A1D3A7DFAFDFA52
:100AD000FDFAFDFAFDAA55AA55AA55AA55AA55AA86
:100AE00055AA55AA55FAFFFFFFFF030000000000BA
:100AF00000000000000000003E1C3870E0C0F0382C
:100B000039F9F100000000000000000000000000C2
:100B10000000000000220525080800000000000079
:100B2000BBAAABBA898800000000000000000000EA
:100B30000000000000000000DD5555DD0404000049
:100B400000000000000000000000000000000000A5
:100B50000000000050AA55AA55AA55AA55AA55AAA0
:100B600055AA55AAD5FFFFFFFF07000000000000AF
:100B700000000000000000008FC6C6C6C6C7C7C67A
:100B8000C6C78F0000000000000000000000000049
:100B90000000000000000000000000000000000055
:100BA000CB2A2A6B20280000000000000000000073
:100BB00000000000000C10101915151500000000B1
:100BC0000000000000000000000000000000000025
:100BD00000000000030E1F3E7F7E7F7E7F7EFFFEB3
:100BE000FFFEFFFEFFFFFFFF0F0000000000000000
:100BF00000000000000000009F3F303030303030F7
:100C0000303F1F0000000000000000000000000056
:100C100000000000000000000000000000000000D4
:100C200000000000000000000000000000000000C4
:100C300000000000000000000000000000000000B4
:100C400000000000000000000000000000000000A4
:100C50000000000000000000000000000000000094
:100C60000000000000000000000000000000000084
:100C700000000000000000003F1F0E0E0E0E0E0EC2
:100C8000000E0E0E0000000000000000000000003A
:100C9000102800F80404242424E42424E404040494
:100CA00004F800FF000000003CA5B9A19D00000071
:100CB00000FF00FF00000000F3846414E400000063
:100CC00000FF00FF000000009C425E528C0000000C
:100CD00000FF000F10101010131212121312121036
:100CE000100F063CF36D9E9E6DF33CDBE7E7DB3CAB
:100CF000CFB67979B6CFF36D9E9E6DF33CDBE7E717
:100D0000DB3CCFB67979B6CFF36D9E9E6DF30C0BBD
:100D100007070B0C55AA55AA55AA55AA55AA55AAB4
:100D200055AA55AA55AA55AA55AA55AA55AA55AACB
:100D300055AA55AA55AA55AA55AA55AA55AA050AAB
:100D4000050A050A0606152A152A152A3F3F3F3FC0
:100D50003F3F0000000000003F352B352B3F3F2375
:100D60002925313F3F212D2D213F10380000FC0265
:100D700002F29292521212F20202FC000000FF00F4
:100D8000005E525E508E00000000FF000000FF0079
:100D9000009252D2528D00000000FF000000FF00C0
:100DA00000C3202322C100000000FF000000FF005C
:100DB00000089995A52400000000FF000000FF0036
:100DC00000171017345300000000FF0000001F2020
:100DD000202420242424242420201F000B02C800C7
:100DE0000601C8004A01C800B801F4018801F401F5
:100DF0000601F4010B02F4010601F4014A01C800E6
:100E0000B801C8008801C8000601C800B801F40193
:100E1000DC00F4010601C8005D01F4012601C800F0
:100E2000DC00C800B801F401DC00F4010601F401A3
:100E30008801C8002601C8005D01C8000B02D00768
:100E4000008050380000E01008080808080808086A
:100E50000808080808080808080808080808080812
:100E60000808080808080808080808080808080802
:100E700008080808080808080808080808080808F2
:100E800008080808080888888888888808080808E2
:100E900010E000000000FF0000000000006C6C008B
:100EA0000C0C000C0C000C0C000C0C006C6C00000A
:100EB000000080000029A9A9AF092909000000004D
:100EC0000000000000000000000000000000000022
:100ED0000000000000679190906000010700000092
:100EE00000FF00000000FF000000000000DBDB004E
:100EF000000000000000000000000000DBDB00003C
:100F000000000304049794949473101000000000F0
:100F10000000000000909090907000000000000021
:100F20000000C00000925252528E000000000000EB
:100F300000FF00000000FF000000000000B6B60047
:100F4000000000000000000000000000B6B6000035
:100F500000000000009E504C429C00000000000079
:100F60000000000000DC425E524C00000000000067
:100F700000000102028B8A8A1AA90000000000000A
:100F800000FF00000000FF0000000000006D6D0089
:100F90000000000000000000000000006D6D000077
:100FA000000000000099A4A4A49900000000000023
:100FB0000000000000060505040400000000000019
:100FC0000000000000672427247320200000000098
:100FD00000FF00000000FF0000000000001B1B00DD
:100FE0001818001818001818001818001B1B00000B
:100FF0000000000000700878493200000000000086
:1010000000000000000000000000000000000000E0
:101010000000000000878806818E808080800000AC
:1010200000FF000000000F102020202020202020A2
:1010300020202020202020202020202020202020B0
:1010400020202020202020202020202020202020A0
:101050002020202020202020202020202020202090
:101060002020202020212120202121212121202079
:10107000100F000050380000E010080808080808A9
:1010800008080808080808080808080808080808E0
:1010900008080808080808080808080808080808D0
:1010A00008080808080808080808080808080808C0
:1010B00008080808080808080808080808080808B0
:1010C000080810E000000000FF0000006692929205
:1010D00067020200000000CF292929270101000032
:1010E00000002929292F892909000000000000009B
:1010F000006C6C000C0C000C0C000C0C000C0C00B8
:101100006C6C0000000080000029A9A9AF09290922
:10111000000000FF00000000FF0000003840300821
:101120007000000000000098898989DD888800002F
:1011300000000301010103010100000000000000A4
:1011400000DBDB00000000000000000000000000E9
:10115000DBDB0000000003040497949494731010E8
:10116000000000FF00000000FF000000F692F28285
:101170007702020000000099A4A4A49900000000D6
:10118000000000000000000000000000000000005F
:1011900000B6B600000000000000000000000000E3
:1011A000B6B6000000000000009E504C429C0000BB
:1011B000000000FF00000000FF000000C242424AA1
:1011C000EE4040000000000404040403404000001E
:1011D000000000000000000000000000000000000F
:1011E000006D6D0000000000000000000000000025
:1011F0006D6D0000000000000099A4A4A4990000F7
:10120000000000FF00000000FF00000008000808C8
:10121000080808000000000909090F092926000034
:1012200000000000000000000000000000000000BE
:10123000001B1B00181800181800181800181800B8
:101240001B1B0000000000000070087849320000FD
:10125000000000FF000000000F10202020202020B0
:10126000202020202020202020202020202020207E
:10127000202020202020202020202020202020206E
:10128000202020202020202020202020202020205E
:10129000202020202020202020202020202020204E
:1012A0002020100F00000000E010080808080808BF
:1012B00008080808080808080808080808080808AE
:1012C000080808080808080808080808080808089E
:1012D000080808080808080808080808080808088E
:1012E000080808080808080808080808080808087E
:1012F000080810E000000000FF00000066929292D3
:1013000067020200000000CF2929292701010000FF
:1013100000002929292F8929090000000000000068
:1013200000B0BC0C000C0C000C0C000C0C000C0CE5
:10133000D8D80000000080000029A9A9AF09290918
:10134000000000FF00000000FF00000038403008EF
:101350007000000000000098898989DD88880000FD
:101360000000030101010301010000000000000072
:10137000006D6D0000000000000000000000000093
:10138000B6B6000000000304049794949473101000
:10139000000000FF00000000FF000000F692F28253
:1013A0007702020000000099A4A4A49900000000A4
:1013B000000000000000000000000000000000002D
:1013C00000DBDB0000000000000000000000000067
:1013D0006D6D000000000000009E504C429C00001B
:1013E000000000FF00000000FF000000C242424A6F
:1013F000EE404000000000040404040340400000EC
:1014000000000000000000000000000000000000DC
:1014100000B6B60000000000000000000000000060
:10142000DBDB0000000000000099A4A4A4990000E8
:10143000000000FF00000000FF0000000800080896
:10144000080808000000000909090F092926000002
:10145000000000000000000000000000000000008C
:10146000000D0D181800181800181800181800188A
:101470001E060000000000000070087849320000DD
:10148000000000FF000000000F102020202020207E
:10149000202020202020202020202020202020204C
:1014A000202020202020202020202020202020203C
:1014B000202020202020202020202020202020202C
:1014C000202020202020202020202020202020201C
:1014D0002020100F00000000E0100808080808088D
:1014E000080808080808080808080808080808087C
:1014F000080808080808080808080808080808086C
:10150000080808080808080808080808080808085B
:10151000080808080808080808080808080808084B
:10152000080810E000000000FF00000066929292A0
:1015300067020200000000CF2929292701010000CD
:1015400000002929292F8929090000000000000036
:1015500000D8D80C0C000C0C000C0C000C0C000C6F
:10156000BCB00000000080000029A9A9AF0929092A
:10157000000000FF00000000FF00000038403008BD
:101580007000000000000098898989DD88880000CB
:101590000000030101010301010000000000000040
:1015A00000B6B600000000000000000000000000CF
:1015B0006D6D000000000304049794949473101060
:1015C000000000FF00000000FF000000F692F28221
:1015D0007702020000000099A4A4A4990000000072
:1015E00000000000000000000000000000000000FB
:1015F000006D6D0000000000000000000000000011
:10160000DBDB000000000000009E504C429C00000C
:10161000000000FF00000000FF000000C242424A3C
:10162000EE404000000000040404040340400000B9
:1016300000000000000000000000000000000000AA
:1016400000DBDB00000000000000000000000000E4
:10165000B6B60000000000000099A4A4A499000000
:10166000000000FF00000000FF0000000800080864
:10167000080808000000000909090F0929260000D0
:10168000000000000000000000000000000000005A
:1016900000061E180018180018180018180018184E
:1016A0000D0D0000000000000070087849320000B5
:1016B000000000FF000000000F102020202020204C
:1016C000202020202020202020202020202020201A
:1016D000202020202020202020202020202020200A
:1016E00020202020202020202020202020202020FA
:1016F00020202020202020202020202020202020EA
:101700002020100F00008040AA0102010201028186
:101710000201020102010201020102810201020131
:101720000201020102010281020102010201020121
:101730000201820102010201020102010201820191
:101740000201020102010201020182010201020101
:1017500002010201020182010201020102010201F1
:101760000201820102010201020102010201820161
:1017700002010201FF0101B9898909890101FF0103
:1017800001010101010101FFAA00000000000000A9
:101790000000000000000000000000000000000049
:1017A0000000000000000000000000000000000039
:1017B0000000000000000000000000000000000029
:1017C0000000000000000000000000000000000019
:1017D0000000000000000000000000000000000009
:1017E00000000000000000000000000000000000F9
:1017F00000000000FF0000EA2AAAE6000000FF0245
:10180000728282621212E203AA0000000000000845
:1018100000000000000000000000000800000000C0
:1018200000000000000000080000000000000000B0
:101830000000080000000000000000000000080098
:101840000000000000000000000008000000000090
:101850000000000000000800000000000000000080
:101860000000080000000000000000000000080068
:1018700000000000FF000016041206000000FF0038
:10188000CC222222CC000000AA0000000000008030
:1018900000000000000000000000008000000000C8
:1018A00000000000000000800000000000000000B8
:1018B0000000800000000000000000000000800028
:1018C0000000000000000000000080000000000098
:1018D0000000000000008000000000000000000088
:1018E00000008000000000000000000000008000F8
:1018F00000000000FF000000000000000000FF00EA
:10190000C445C555DC000000AA000000000000002E
:1019100000000000000000000000000000000000C7
:1019200000000000000000000000000000000000B7
:1019300000000000000000000000000000000000A7
:101940000000000000000000000000000000000097
:101950000000000000000000000000000000000087
:101960000000000000000000000000000000000077
:1019700000000000FF202020202020202020FF0049
:101980000104010501000000AA0000000000000899
:10199000000000000000000000000008000000003F
:1019A000000000000000000800000000000000002F
:1019B0000000080000000000000000000000080017
:1019C000000000000000000000000800000000000F
:1019D00000000000000008000000000000000000FF
:1019E00000000800000000000000000000000800E7
:1019F00000000000FF000077115171010000FF009E
:101A00000000000000000000AA00000000000080AC
:101A10000000000000000000000000800000000046
:101A20000000000000000080000000000000000036
:101A300000008000000000000000000000008000A6
:101A40000000000000000000000080000000000016
:101A50000000000000008000000000000000000006
:101A60000000800000000000000000000000800076
:101A700000000000FF000012051505000000FF0037
:101A80000000000000000000AA80408040804080EC
:101A90004080408040804080408040804080408046
:101AA0004080408040804080408040804080408036
:101AB0004080408040804080408040804080408026
:101AC0004080408040804080408040804080408016
:101AD0004080408040804080408040804080408006
:101AE00040804080408040804080408040804080F6
:101AF00040804080FF808080808080808080FF00E8
:101B00000000000000000000000000002500280088
:101B10002B002E0031000404040404030405020217
:101B20000202040302020202060606060606040476
:101B30000202020404040802011040804010204008
:101B400080408008020401804020100201108010B3
:101B5000204040200000000200090F0000030401A3
:101B6000000C000000000000000000000000000069
:101B7000000000080B00020202000009040000013E
:101B800002020000052400100105240101010424C3
:101B90000206052406000107058103100040090420
:101BA0000100020A000000070502024000000705CC
:101BB00083024000000403090412010002EF020145
:101BC00040412336800001010203014172647569BE
:101BD0006E6F204C4C430041726475696E6F204CEF
:101BE000656F6E6172646F0007051E121212121289
:101BF0001E1E0808080A0C081E02021E10121E1ED5
:101C000010101C10101E1010101E1212121E101098
:101C10001E02021E1E12121E02020E1010101010C2
:101C2000101E1E12121E12121E1E10101E12121E46
:101C30000000000000000000A61C11241FBECFEF12
:101C4000DAE0DEBFCDBF11E0A0E0B1E0E2ECF2E50A
:101C500002C005900D92AA35B107D9F727E0AAE591
:101C6000B1E001C01D92A939B207E1F71EE0CDE154
:101C7000DEE004C02197FE010E945929CC31D10732
:101C8000C9F70E94DB1C0C945F290C940000809122
:101C900067010895E3E3F3E0A0E0B8E000800EBC44
:101CA0008111012C1197A0FDFDCF0192B9F70DB460
:101CB000089580E0E3E3F3E081118FEF0024819346
:101CC0008193819381930394D1F708954F925F920A
:101CD0006F927F928F929F92AF92BF92CF92DF923C
:101CE000EF92FF920F931F93CF93DF93FB01E00FCF
:101CF000F11D1E161F060CF08AC0603471050CF031
:101D000086C0DB0177FF04C0AA27BB27A61BB70B41
:101D1000A770BB27EB0177FD2796E3E0D595C79524
:101D2000EA95E1F777FF07C0219768E070E0FB01D3
:101D3000EA1BFB0BDF0130E0069506950695802E29
:101D4000912C8A01AE015695542F442757954795FB
:101D5000480F591F4D5C5C4FBE01E0E8F0E07F0189
:101D6000E81AF90A88E090E03C016A1A7B0A6F3FA2
:101D7000FFEF7F070CF43BC090E080E05A01E0E801
:101D8000AE0EB11C6F3F760709F452C0FC01E00FA4
:101D9000F11FE4916A01C80ED91EF0E02F010A2E4E
:101DA00001C0440C0A94EAF7F601508045284082AD
:101DB0001097B1F06730710599F0F801E80FF91F3D
:101DC000E4916501C80ED91EF0E02F01062C02C077
:101DD000559447940A94E2F7F601508045284082D2
:101DE0000196821793071CF4E816F90659F66F5FFF
:101DF0007F4F020F131F40585F4FCB018C1B9D0B71
:101E00008815990524F46830710509F0B0CFDF9189
:101E1000CF911F910F91FF90EF90DF90CF90BF90E7
:101E2000AF909F908F907F906F905F904F900895AC
:101E3000109709F0C2CFD4CFFC01809132038823E0
:101E400011F13FB7F89482E08093E9002091F2000D
:101E5000822F90E01816190614F481E090E0882390
:101E600039F0289844E6409331034091F1004083D3
:101E7000222339F02091F200211103C02BE6209398
:101E8000E8003FBF08958FEF9FEF08952FB7F894B4
:101E900083E08093E9009091E800892F807295FF9C
:101EA00004C09091F20080E4891B2FBF08958091B7
:101EB000290381110DC082E08093250384E0809383
:101EC0002603109228031092270381E080932903B0
:101ED00085E293E00895CF93DF931F92CDB7DEB7ED
:101EE0006983DC01ED91FC910280F381E02D41E0FA
:101EF00050E0BE016F5F7F4F09950F90DF91CF914A
:101F0000089583E08093E9008091F200882319F01E
:101F10008AE38093E80008950E94460F90E00895B8
:101F2000CF93DF931F92CDB7DEB7FC0184859585F3
:101F300097FD08C02FEF3FEF358724870F90DF9183
:101F4000CF910895CE0101960E941C0F019719F4BC
:101F5000898190E0F3CF8FEF9FEFF0CF0F931F9326
:101F6000CF93DF931F92CDB7DEB78C01FC01848540
:101F7000958597FF0BC0CE0101960E941C0F01971B
:101F800071F4898190E0F80195878487F801848550
:101F900095850F90DF91CF911F910F9108958FEF4D
:101FA0009FEFF1CFFC018485958597FD0BC09FB70E
:101FB000F89482E08093E9008091F2009FBF90E066
:101FC000019608959FB7F89482E08093E90080918C
:101FD000F2009FBF90E0089540911F0350912003AD
:101FE00020911D0330911E0342175307B4F49091C2
:101FF000E8009570E1F39091E80092FD19C080939C
:10200000F10080911F039091200301968F7399270F
:10201000892B19F48EEF8093E80080911F03909133
:10202000200301969093200380931F0381E008957D
:1020300080E00895DF92EF92FF920F931F93CF936A
:10204000DF93D82E8A01EB017B01E40EF51ECE153D
:10205000DF0559F0D7FE12C0FE0184910E94EC0FFB
:1020600021968111F4CF0FEF1FEFC801DF91CF91BF
:102070001F910F91FF90EF90DF9008958881EECF30
:102080000F931F93CF93DF931F92CDB7DEB782E0FC
:10209000898342E450E063E77BE180E80E941A1004
:1020A0000E94570FDC0112960D911C91011511052C
:1020B00089F0D801ED91FC910280F381E02DBE0101
:1020C0006F5F7F4FC801099597FD04C0F801008537
:1020D0001185ECCF89810F90DF91CF911F910F91E6
:1020E0000895615030F02091F100FC0120830196A9
:1020F000F8CF289884E6809331030895282F30E0A4
:10210000F901EC5AF44E9491F901EB5CF44E849190
:102110002A5E344EF9012491222309F430C0992318
:10212000E9F091509F30D0F4E92FF0E0E656FF4EF1
:102130000C945929C810CC10A910C010C410AE10AE
:10214000AE10AE10CF10D510D910DD10E310AE10C8
:10215000E710909180009F7790938000E22FF0E04D
:10216000EE0FFF1FE85FF44EA591B4919FB7F8946E
:10217000EC91611132C080958E238C939FBF08959E
:10218000909180009F7DE8CF90918000977FE4CF71
:1021900094B59F7794BDE2CF94B59F7DFBCF90918E
:1021A00090009F7790939000D9CF909190009F7D61
:1021B000F9CF90919000977FF5CF9091C0009F77D5
:1021C0009093C000CBCF9091C0009F7DF9CF9091AC
:1021D000C200977F9093C200C1CF8E2BCECF3FB766
:1021E000F8948091190390911A03A0911B03B09168
:1021F0001C0326B5A89B05C02F3F19F00196A11D11
:10220000B11D3FBFBA2FA92F982F8827BC01CD0140
:10221000620F711D811D911D42E0660F771F881F9F
:10222000991F4A95D1F708958F929F92AF92BF92CE
:10223000CF92DF92EF92FF926B017C010E94EF1030
:102240004B015C01C114D104E104F104B9F00E9416
:10225000EF10681979098A099B09683E7340810566
:10226000910580F321E0C21AD108E108F10888EE57
:10227000880E83E0981EA11CB11CE4CFFF90EF9064
:10228000DF90CF90BF90AF909F908F9008958F92E6
:102290009F92AF92BF92CF92DF92EF92FF920F93F5
:1022A0001F93CF93DF936C017B018A018091120110
:1022B000882309F45CC080913203882309F457C055
:1022C0008091240380FF05C08091E00082608093AC
:1022D000E000E801B12C8AEFA82E93E0892E2AE3D2
:1022E000922E209711F4BB20D9F10E94460F811144
:1022F0000AC0AA94AA20D9F161E070E080E090E0E1
:102300000E941411EECF8C171D0611F00CF08C2FCB
:102310009FB7F8948092E9002091E80025FD02C063
:102320009FBFDFCF282F30E0C21BD30BF7018150B6
:1023300020F041914093F100FACFE20EF31EBB2052
:1023400021F09092E800B12CEBCF8091E80085FD60
:10235000E7CF9092E800BB24B394209709F3F3CF22
:102360005D9884E680932303101611063CF081E00B
:1023700090E0F6019383828310E000E0C801DF91D2
:10238000CF911F910F91FF90EF90DF90CF90BF9072
:10239000AF909F908F9008952FB7F8946091150398
:1023A0007091160380911703909118032FBF089521
:1023B000AF92BF92CF92DF92EF92FF920F931F9353
:1023C000CF93DF936C017B018B01040F151FEB0191
:1023D0005E01AE18BF08C017D10759F06991D60148
:1023E000ED91FC910190F081E02DC6010995892BBA
:1023F00079F7C501DF91CF911F910F91FF90EF9079
:10240000DF90CF90BF90AF9008952091FE02E091B1
:10241000FC02F091FD02CF0102969093FD028093A1
:10242000FC02222319F08591949108958081918175
:102430000895CF92DF92EF92FF92CF93DF930E94A5
:102440000512811520E8920791F4809171008D7F2B
:102450008093710010929100469847981092600105
:10246000DF91CF91FF90EF90DF90CF90089521E022
:1024700020936001813020E8920751F48091FA02A4
:102480009091FB029093FD028093FC020E94051242
:1024900097FD05C020915F01222309F454C02091CB
:1024A0005E01211150C021E020936101EC01DF7732
:1024B000209709F04BC081E08093620146983FE984
:1024C000C32E3FE0D32EE12CF12CCAEFD0E0E091F7
:1024D0009107F09192070995811103C081E08093E3
:1024E000620180916101882329F080916201882333
:1024F00009F43FC047980E9405120097F1F19C0132
:10250000DE010E94AE25DC01CB0129E0B595A7953F
:10251000979587952A95D1F7109290002AE02093FD
:102520009100D0929900C09298008093630190939B
:102530006401A0936501B09366018091710082608F
:10254000809371008DCF10926101B0CF9E0150E059
:1025500040E060E472E48FE090E00E945A25690157
:102560007A0181E0C81AD108E108F10810926201ED
:10257000AECF4699BFCF479ABECF8FEF9FEFDC011A
:10258000CBCF9C01E1E7F0E090819D7F908310929A
:10259000FE02E3E8F7E0F093FD02E093FC02F09323
:1025A000FB02E093FA02318320837383628380E02D
:1025B00090E8958384830C9419124F925F926F92E6
:1025C0007F928F929F92AF92BF92CF92DF92EF92C3
:1025D000FF920F931F93CF93DF934C015901FC2D72
:1025E000C02FD0E0CE01880D991D181619060CF0E9
:1025F0006CC020E8821691040CF067C09B012E0D80
:10260000311D121613060CF060C0603471050CF019
:102610005CC04115510509F458C0E62FE770FE2E45
:10262000DB0177FD179633E0B595A7953A95E1F76D
:102630003A2F77FF04C0FF2011F03FEF3A0F6627D3
:1026400077276819790997FC02C070E060E080384C
:1026500091050CF44BC090E89819961BA32F032EFC
:10266000000CBB0B1A2F10953F3F0CF010E021E03F
:102670008E2D877009F420E0E694E694E694E20E4D
:10268000AE0DB11D19971CF028E0E22EE31AE11AF5
:10269000310F20E83203D0011124A80DB91DA60F77
:1026A000B71F019F600D711D1124460F571F0F2D7D
:1026B0000F2C000C110BF33009F41CC1C8F4F130DD
:1026C00009F4D0C0F23009F47CC0DF91CF911F91A2
:1026D0000F91FF90EF90DF90CF90BF90AF909F90C1
:1026E0008F907F906F905F904F900895902FB5CF0F
:1026F000FA3FB1F1232F2E0DFB3F39F7321729F3A3
:10270000BD016D5C7C4FD12CC12CC91608F0A4C052
:10271000FA01EC0DFD1DE491F0E04F01002E02C026
:10272000880C991C0A94E2F737FD06C0FB018081F2
:10273000E82CE0948E218083FF2061F0373054F440
:102740005B01F0E8AF0EB11CE92CE094F50180814B
:102750008E218083FFEFCF1ADF0A6F5F7F4FD5CFC7
:10276000232F2E0D321709F4B0CFBD016D5C7C4FC5
:10277000D12CC12CC91608F069C0FA01EC0DFD1D61
:10278000E491F0E04F01002E02C0880C991C0A94DD
:10279000E2F737FD04C0FB01808188298083FF2098
:1027A00051F0373044F45B01F0E8AF0EB11CF50195
:1027B000808189298083FFEFCF1ADF0A6F5F7F4F07
:1027C000D9CF6FEF70E00F2C02C0660F771F0A940D
:1027D000E2F760957095772E232F2E0D321709F4AE
:1027E00074CFFD01ED5CFC4F6F01B12CA12CA9163B
:1027F00038F5FA01EA0DFB1DE491F0E02F01002EFF
:1028000002C0440C551C0A94E2F737FD05C0F601DE
:102810008081862384298083FF2059F037304CF44F
:102820004601F0E88F0E911CF401808187218529F3
:102830008083FFEFAF1ABF0A8FEFC81AD80AD7CF2D
:102840003F5F4C0F5D1FA058BF4FC8CF3F5F4C0F7D
:102850005D1FA058BF4F86CF3F5F4C0F5D1FA05834
:10286000BF4F4CCF6A0D7B1D232F2E0D321709F45D
:102870002CCFFD01ED5CFC4F6F01B12CA12CA916F2
:1028800088F5FB01EA0DFB1D8490912C002E02C0FF
:10289000880C991C0A94E2F780949094FA01EA0D4E
:1028A000FB1D6490712C002E02C0660C771C0A94EC
:1028B000E2F737FD05C0F6018081882186298083F3
:1028C000FF2049F037303CF4F601E058FF4F80819B
:1028D000892187298083FFEFAF1ABF0A8FEFC81ABB
:1028E000D80ACDCF3F5F4C0F5D1F6C0F7D1FA058E6
:1028F000BF4FBCCFC92ED12CFA01E60FF71FAD5C3C
:10290000BC4F00E810E00C191D09CC19DD09BE010F
:10291000660F771F41E050E06A010F2C01C0CC0C1C
:102920000A94EAF7592F2E2D792ECF93DF93ED01DC
:10293000EF96EF9622968590A590FF2059F08C9CFB
:102940004001AC9C500137302CF4E880B094EB206F
:10295000E928E99233233AF0EC90A094EA20E828A1
:10296000ED920C94B41411965A9529F72A9551F0CA
:10297000572D33951124E60FF11DA00FB11DC00F87
:10298000D11DD9CFDF91CF9111249FCECF92EF925D
:102990000F93CF93DF93DC01FA0104913196E49019
:1029A0004E5F5F4F2223D1F0C1E0D0E09E2D9770A3
:1029B00011F4D0E0C0E0EE2DE695E695E695EC0F3B
:1029C000FD2FF11D0E9FE0010F9FD00D11242C9FB4
:1029D000C0012D9F900D1124480F591F8AEFC82E5A
:1029E00030E020E0CD010E94DD12DF91CF910F9108
:1029F000EF90CF900895CF92EF920F93CF93DF9304
:102A0000DC01FA0104913196E4904E5F5F4F22237E
:102A1000D1F0C1E0D0E09E2D977011F4D0E0C0E07D
:102A2000EE2DE695E695E695EC0FFD2FF11D0E9F38
:102A3000E0010F9FD00D11242C9FC0012D9F900D00
:102A40001124480F591F82E0C82E30E020E0CD014C
:102A50000E94DD12DF91CF910F91EF90CF900895FA
:102A60002D9A0895BC0190E080E00C9414118FB170
:102A70008095807F669B88601C9B84600895AF92E0
:102A8000BF92CF92DF92EF92FF920F931F93CF935B
:102A9000DF936D3079F0C0911003D09111036A304B
:102AA000B1F410920F0310920E032896D0931103E5
:102AB000C093100381E090E0DF91CF911F910F91BF
:102AC000FF90EF90DF90CF90BF90AF90089540912E
:102AD0000E0350910F0385E0689FF0011124E65624
:102AE000FD4F9A01C12C80E1E82EA5E070E0CA16E6
:102AF00021F0CF0101967491FC0110E000E0B72FA6
:102B0000B170DB2E20383105D0F4CE01800F911F3B
:102B100080349105A0F461E081FD64E080FD660FE2
:102B200082FD6295887FE89ED0011124A20FF62EC7
:102B3000AD5CBC4F8C91DD20A9F0862B8C937695F3
:102B40000F5F1F4F08301105D1F6C3942F5F3F4F21
:102B500086E0C812CACF4A5F5F4F50930F0340937D
:102B60000E03A8CFF0948F21E9CFCF93C82F0E94F6
:102B70003715982F9C2381E09C1380E0CF91089516
:102B800080E00C944A0E0E94CC1180915C01882355
:102B900021F010925C0180E0089590915D01262F54
:102BA000291B922F20910001921740F49F5F9217EA
:102BB000A0F491E093BF889513BE089581E08093BF
:102BC0005C0160935D0180915A0190915B010196D7
:102BD00090935B0180935A0181E00895CF92DF9238
:102BE000EF92FF920F931F93CF93DF939C01FB0112
:102BF000C0E1D7E2BE010E944529AB0164836C9F0E
:102C000080016D9F100D7C9F100D1124C901801B48
:102C1000910B58EEC52E53E0D52EB6010E944529E2
:102C2000EB0163836C9D70016D9DF00C7C9DF00C3D
:102C30001124C9018E199F09801B910B64E670E075
:102C40000E944529D62F628364E6D62EC901DD9DF8
:102C50008019910911248E199F09801B910B6AE03C
:102C600070E00E94452961839AE0699F2019112430
:102C7000DD9E2019112488E1C89F200D1124429562
:102C8000407F241B2083DF91CF911F910F91FF90F4
:102C9000EF90DF90CF900895EAEEF2E04AE0828173
:102CA00093818A309105C0F4208131812231310530
:102CB0009CF4429FD001439FB00D1124A258BE4FF7
:102CC000A80FB91F8C91811107C0349682E0EA3FAA
:102CD000F80729F781E0089580E00895089590E0CD
:102CE00080E008952F923F924F925F926F927F9271
:102CF0008F929F92AF92BF92CF92DF92EF92FF920C
:102D00000F931F93CF93DF93CDB7DEB728970FB6FE
:102D1000F894DEBF0FBECDBF6C01B62EBE016F5F53
:102D20007F4F0E94EE15CE0101961C0183E1E82E33
:102D3000F12C04E010E0EB2DF0E0F887EF832601A2
:102D4000712C612CF101F481FE83F11121C0B801D5
:102D5000012E000C880B990B0E94BF259B01AC0132
:102D600060E070E080E291E40E94FF254B015C018D
:102D7000C301B2010E94BD25A50194010E94FA255C
:102D8000181634F0C114D10479F50115110561F557
:102D90002E8148EE5BE1B7018F8198850E94FB147C
:102DA0000150110981E0281A310895E0E90EF11C63
:102DB0000F3F100739F628960FB6F894DEBF0FBE06
:102DC000CDBFDF91CF911F910F91FF90EF90DF90DA
:102DD000CF90BF90AF909F908F907F906F905F90BB
:102DE0004F903F902F9008952AE0D3CF2F923F929B
:102DF0004F925F926F927F928F929F92AF92BF920B
:102E0000CF92DF92EF92FF920F931F93CF93DF93B6
:102E100000D000D000D0CDB7DEB720E048EF51E0C1
:102E200070E060E08CE690E00E94FB14C0900A0322
:102E3000D0900B03BE016F5F7F4FC6010E94EE155D
:102E4000CE0101961C0195E2E92EF12C04E010E080
:102E50002601712C612CF101F481FE83F11123C054
:102E6000B801012E000C880B990B0E94BF259B0115
:102E7000AC0160E070E080E291E40E94FF254B012C
:102E80005C01C301B2010E94BD25A50194010E940D
:102E9000FA25181644F0C114D10409F0B5C0011583
:102EA000110509F0B1C02E8148EE5BE1B70188E75A
:102EB00090E00E94FB140150110981E0281A3108AA
:102EC00095E0E90EF11C0F3F100729F6C0900C03A6
:102ED000D0900D03BE016F5F7F4FC6010E94EE15BB
:102EE000CE0101961C0187E1E82EF12C02E010E0F2
:102EF0002601712C612CF101F281FE83F11123C0B6
:102F0000B801012E000C880B990B0E94BF259B0174
:102F1000AC0160E070E080E291E40E94FF254B018B
:102F20005C01C301B2010E94BD25A50194010E946C
:102F3000FA25181644F0C114D10409F067C0011530
:102F4000110509F063C02E8147E558E0B7018FE60F
:102F500090E00E94FB140150110981E0281A310809
:102F600094E0E90EF11C0F3F100729F6F0900601DE
:102F70000F2D10E0BE016F5F7F4FC8010E94EE155C
:102F8000EA80EE2009F444C02E2D47E558E066E3C0
:102F900070E08FE690E00E94FB14E980EE2009F4D7
:102FA00049C02E2D47E558E06AE370E08FE690E0D7
:102FB0000E94FB1480910903882319F088E0809314
:102FC0000501209105014EE251E070E060E086E7E6
:102FD00090E00E94FB1426960FB6F894DEBF0FBE59
:102FE000CDBFDF91CF911F910F91FF90EF90DF90B8
:102FF000CF90BF90AF909F908F907F906F905F9099
:103000004F903F902F9008952AE04ECF2AE09CCF1A
:10301000B801012E000C880B990B0E94BF2520E0FF
:1030200030E040E251E40E94FA2518160CF4ACCFCF
:103030002AE0ABCFB801110F880B990B0E94BF2576
:1030400020E030E040E85FE30E94FA2518160CF417
:10305000A8CFFF2009F4A5CF2AE0A4CF0C944425E3
:10306000FF920F931F93CF93DF93EC01F62E08810D
:103070001981C8010E944425F81621F06F2DC8015E
:103080000E944C25CE01DF91CF911F910F91FF90AF
:1030900008959F92AF92BF92CF92DF92EF92FF92EC
:1030A0000F931F93CF93DF9300D0CDB7DEB710926D
:1030B0000401DC01AA0FBB1FAA0FBB1FA75EBE4FF6
:1030C0000AEE12E0F8012D91322F31703083118217
:1030D000269530E033832283349622E0EA3FF207DC
:1030E00091F7EE24E394F12C009711F0F12CE12CF0
:1030F0009EE6C92E91E0D92ED601EAEEF2E040819B
:103100005181628173814D935D936D937D93208195
:1031100031812E193F0931832083228133812D5F34
:103120003F4F33832283349622E0EA3FF20739F798
:1031300090900803809308030E944C1681116CC084
:10314000EEE6F1E080819181892B09F079C081E080
:103150008093090380910903882309F45DC0A0903E
:103160000A03B0900B0380911203909113038A1508
:103170009B05F0F481E08093010380E190E09A8365
:10318000898363E1CE0101960E94301881E190E0CD
:103190009A8389836A2DCE0101960E94301882E1BC
:1031A00090E09A8389836B2DCE0101960E9430189E
:1031B00088E08093050190920803AAEEB2E0EEE663
:1031C000F1E041915191619171914D935D936D93B6
:1031D0007D9321E0EE37F207A1F7E094F094F80137
:1031E00080819181A281B381F60181939193A19312
:1031F000B1936F01F801808191818E0D9F1D9183A4
:103200008083828193810396938382830C5F1F4F17
:10321000F2E00A3F1F0719F70E94CC1170936D016D
:1032200060936C010F900F90DF91CF911F910F91E0
:10323000FF90EF90DF90CF90BF90AF909F90089558
:10324000349681E0EE37F80709F07CCF83CF1F92E8
:103250000F920FB60F9211248F939F938091E100EC
:103260009091E100937F9093E10083FF0FC0109253
:10327000E90091E09093EB001092EC0092E39093C0
:10328000ED001092320398E09093F00082FF22C08C
:1032900093E09093E9009091F200992319F09AE35A
:1032A0009093E80090912303992341F09091230398
:1032B000915090932303911101C05D9A9091310335
:1032C000992341F0909131039150909331039111E2
:1032D00001C0289A84FF18C08091E2008E7E816030
:1032E0008093E2008091E1008F7E8093E1008091E5
:1032F00024038E7E8061809324039F918F910F9091
:103300000FBE0F901F90189580FFF7CF8091E200BD
:103310008E7E80618093E2008091E1008E7E8093BA
:10332000E100809124038E7E8160E5CF1F920F9291
:103330000FB60F921124CF92DF92EF92FF920F936C
:103340001F932F933F934F935F936F937F938F932D
:103350009F93AF93BF93EF93FF93CF93DF93CDB73B
:10336000DEB76C97DEBFCDBF1092E9008091E80018
:1033700083FF25C068E0CE0145960E94711082EF60
:103380008093E8008D8987FF39C09091E80090FF15
:10339000FCCF982F907609F034C19E894F89588DC3
:1033A0002F89F88C911131C0803861F5809122030A
:1033B0008093F1001092F1008EEF8093E8006C96FC
:1033C0000FB6F894DEBF0FBECDBFDF91CF91FF9156
:1033D000EF91BF91AF919F918F917F916F915F918D
:1033E0004F913F912F911F910F91FF90EF90DF90A0
:1033F000CF900F900FBE0F901F9018959EEF909357
:10340000E800C7CF1092F100D5CF913059F4811167
:10341000D3CF4130510581F6809122038D7F809377
:103420002203CACF933049F48111C6CF41305105F0
:1034300019F6809122038260F2CF953041F4809199
:10344000E80080FFFCCF20682093E300B5CF9630E2
:1034500009F0A9C00B8D1C8D22E01092E90010929A
:10346000200310921F03F2122EC010921E0310921E
:103470001D030E9440101F8299E09983FA8291E017
:103480009E8390EA98879AEF998720911F03309145
:103490002003275F3F4F3C832B838D831092E900ED
:1034A0001092200310921F0310931E0300931D031C
:1034B00049E050E0BE016F5F7F4F80E00E941A102C
:1034C0000E94401079CF10931E0300931D030E94A9
:1034D000570FDC0112960D911C910115110509F48D
:1034E00051C1D801ED91FC910480F581E02DBE0120
:1034F0006B5E7F4FC8010995009709F03EC1F80146
:1035000000851185EACFF3E0FF120EC08F89882372
:1035100009F440C0823061F440E860E187ED9BE14E
:103520000E94731C811148CF81E28093EB0047CF4A
:10353000813029F440E86BE08BEC9BE1F1CF8330E4
:1035400099F70E94570FDC011296ED90FC908E01C6
:103550000F5F1F4F6801E114F10479F0D701ED917D
:10356000FC910680F781E02DB801C7010995080F8D
:10357000111DF701E084F184EECFD8011C92F60111
:1035800001900020E9F73197BF016C197D0940E0F7
:10359000C601C6CF65EB7BE1FB01449150E080E8BA
:1035A0000E941A1009CF973009F4BECF983021F449
:1035B00081E08093F10000CF993009F0FDCE837057
:1035C00009F0B2CFE6E3F1E081E031E096E321914A
:1035D000222371F08093E9003093EB00DF01119713
:1035E0002C912093EC009093ED008F5F873079F75A
:1035F0008EE78093EA001092EA008F89809332036D
:10360000DBCE8B8D9C8D1092E900109220031092DE
:103610001F0390931E0380931D03898D811192C017
:103620008E899D89913A49F4813209F07DCF47E036
:1036300050E06BE071E080E0B3CF913209F074CFDD
:10364000833269F48F89988DB0E0A0E08093070100
:1036500090930801A0930901B0930A01ADCE803286
:1036600069F48091E80082FFFCCF67E08BE091E095
:103670000E9471108BEF8093E8009ECE823209F099
:103680009BCE8F8980931201EEEFFFE78591949195
:103690008B3F9C4D51F1E0E0F8E080910B0190915F
:1036A0000C01A0910D01B0910E01803B9440A10549
:1036B000B105F1F48091120180FD1AC0EE3F8AE05D
:1036C000F80789F587E797E7918380838091600009
:1036D0008093210388E19BE00FB6F894A89580932E
:1036E00060000FBE9093600067CEEEEFFAE0D5CF9A
:1036F000808191818737974709F05ECEA8958091A8
:103700006000886180936000809121038093600055
:10371000EE3F2AE0F20789F08091FE0A9091FF0ABD
:103720009183808349CE808191818737980751F2B8
:103730009093FF0A8093FE0AC5CF1092FF0A109261
:10374000FE0A3ACE0E94570FDC0112960D911C9191
:103750000115110509F4E8CED801ED91FC91019015
:10376000F081E02DBE016B5E7F4FC801099581118C
:1037700023CEF80100851185EBCF181619060CF43D
:103780001BCED2CEF1E0FF12BECE69EB7BE104CFBF
:103790001F920F920FB60F9211242F933F938F9386
:1037A0009F93AF93BF938091150390911603A091BF
:1037B0001703B09118033091140323E0230F2D3722
:1037C00058F50196A11DB11D209314038093150394
:1037D00090931603A0931703B093180380911903D5
:1037E00090911A03A0911B03B0911C030196A11D97
:1037F000B11D8093190390931A03A0931B03B093F8
:103800001C03BF91AF919F918F913F912F910F908A
:103810000FBE0F901F90189526E8230F0296A11D4A
:10382000B11DD2CF1F920F920FB60F9211242F937A
:103830003F934F935F936F937F938F939F93AF9338
:10384000BF93EF93FF938091630190916401A091E6
:103850006501B0916601892B8A2B8B2B09F440C03E
:103860008091620181110BC088B190E4892788B9E9
:1038700080916101882319F088B1805888B98091BE
:10388000630190916401A0916501B09166011816E1
:1038900019061A061B069CF480916301909164013D
:1038A000A0916501B09166010197A109B1098093CA
:1038B000630190936401A0936501B0936601FF9149
:1038C000EF91BF91AF919F918F917F916F915F9198
:1038D0004F913F912F910F900FBE0F901F90189511
:1038E0000E941912ECCFEF92FF920F931F93CF9388
:1038F000DF93F82E192FE62E042F81E0860F880F14
:103900000E94EC0F83E00E94EC0FCF2DD12FEC0E24
:10391000FD2EF11CCE15DF05B9F007FF13C0FE0127
:1039200084910E94EC0F182F80E00E94EC0F8123FD
:1039300021968111EFCFDF91CF911F910F91FF90D1
:10394000EF9008958881EDCF81E0F5CFE3E3F7E0D4
:103950001382128288EE93E0A0E0B0E08483958326
:10396000A683B78380E491E0918380838FEF9FEFFC
:1039700095878487E5E9F7E01382128282E591E07A
:103980009183808387E49EE09093920780939107D0
:1039900080E090E89093900780938F0746983E9A36
:1039A00047983F9A80911301909114019093940746
:1039B000809393070895CF93DF93CDB7DEB7299710
:1039C0000FB6F894DEBF0FBECDBF789484B5826089
:1039D00084BD84B5816084BD85B5826085BD85B5B3
:1039E000816085BD80916E00816080936E00109231
:1039F00081008091810082608093810080918100AC
:103A0000816080938100809180008160809380003C
:103A100080919100826080939100809191008160FB
:103A200080939100809190008160809390008091BC
:103A3000C10084608093C1008091C1008260809346
:103A4000C1008091C10081608093C1008091C3005A
:103A500081608093C3008091C00082608093C00029
:103A60008091C20081608093C20080917A0084605E
:103A700080937A0080917A00826080937A008091AE
:103A80007A00816080937A0080917A0080688093C8
:103A90007A00109232031092220310922403809134
:103AA000D70081608093D70080EA8093D80089B5E1
:103AB000806189BD89B5826089BD09B400FEFDCFF2
:103AC00061E070E080E090E00E9414118091D800E5
:103AD0008F7C80618093D8008091E000807F80930C
:103AE000E0008091E1008E7E8093E1008DE0809384
:103AF000E200559A209A81EC80937C0085B1806F1A
:103B000085B984B1877E84B984B1876E84B95E9AA1
:103B10005F988AB1806D8AB9769A6E9881B3806F0A
:103B200081BB899880B38D7080BB80E58CBD81E0BE
:103B30008DBD85E090E00E9432155F9A85E090E0AF
:103B40000E9432155E985C98EAE4F8E084918EBD9C
:103B500000000DB407FEFDCF319628E0E735F207EF
:103B6000A9F75C9A81E88093640080916500816088
:103B7000809365000E94C01580E80E94B51502E0A0
:103B800010E08823A9F05C9885EA8EBD00000DB492
:103B900007FEFDCF5C9A2E982F982D988091640097
:103BA00080628093640081E083BF889513BEFCCF60
:103BB00084E00E94B515882309F440C02D9884E85C
:103BC0000E94B5158823C1F00E94301588EC90E062
:103BD0000E9432152F981A8309836FEFCE01019648
:103BE0000E94301884EF91E00E9432152F9A84E8E9
:103BF0000E94B5158111FBCF84E10E94B515882381
:103C0000C1F00E94301588EC90E00E9432152E9889
:103C10001A83098360E0CE0101960E94301884EF78
:103C200091E00E9432152E9A84E10E94B51581110F
:103C3000FBCF88EC90E00E943215BACF0E9430157D
:103C400082E090E00E942E18882309F4F1C03E9A89
:103C50003F9A81E08093670181E090E00E942E18F6
:103C6000182F147081FF10C011112E9851EFE52EFE
:103C7000FF24FA9480E40E94B515882309F4DDC07E
:103C80002E9A2F9A0E94301582E390E00E943215FE
:103C90000E9437158111F8CF81E2809300010E94C4
:103CA000C315882391F10E94590E109211031092AE
:103CB000100310920F0310920E0300E420E840E975
:103CC00058E070E060E090E080E00E94660EBE0187
:103CD0006F5F7F4F87E090E00E94EE152A812223DC
:103CE00009F408C147E558E06FE270E085E090E034
:103CF0000E94FB14298147E558E063E370E085E00A
:103D000090E00E94FB140E94C01547E0242E312C45
:103D1000412C512C84E00E94B515882309F4B6C5C6
:103D20000E94C3158F83882309F4B0C50E94590EE1
:103D3000109211031092100310920F0310920E03B1
:103D400062E370E083E992E00E94C1120E94F616DD
:103D500020E046E057E170E060E090E080E00E9403
:103D6000C6141A82198280E190E00E942E188331D5
:103D700051F481E190E00E944425898382E190E042
:103D80000E9444258A8309811A81109313030093AA
:103D9000120320E044E750E164E070E084E190E049
:103DA0000E94FB1464E4C8010E9472160E94C015B0
:103DB00088E00E94B51581119FC064E670E080E044
:103DC00090E00E94141121E044E750E164E070E0CB
:103DD00084E190E00E94FB1464E4C8010E94721622
:103DE0000E94C01588E00E94B515811185C064E667
:103DF00070E080E090E00E94141122E044E750E17E
:103E000064E070E084E190E00E94FB1464E4C80187
:103E10000E9472160E94C01588E00E94B51581119B
:103E20006BC064E670E080E090E00E941411B1CFB6
:103E3000109267013E983F980FCF112331F044E074
:103E4000E416F10411F42E9A2F9881E00E944A0E94
:103E500000E128E54AE957E0B70184E190E00E94DB
:103E6000660E0E94C0158FE090E00E9432155FEF51
:103E7000E51AF50A89E1E816F10409F0FBCE1123F1
:103E800011F02F9A2D9880E991E00E9432150E943E
:103E9000301581E090E00E942E1880FFF5CE8AE078
:103EA00090E00E942E189FEF980F9E3F08F0ECCEF6
:103EB00022E330E030930F0320930E0328E330E039
:103EC00030931103209310030BE010E0682F85E975
:103ED00097E00E943F15C8010E942E180F5F1F4FE8
:103EE0000131110599F70E94C01588EE93E00E94F8
:103EF0003215CACE2AE0F6CE20E046E057E170E067
:103F000060E090E080E00E94FB140E94C0151092D7
:103F10000D0310920C0310920B0310920A0381E020
:103F2000809306011092090320E233E030931401DC
:103F30002093130199E090930501109208031092C9
:103F400007031092060310920503109204031092C7
:103F500003031092020330939407209393078093F6
:103F60000401109201030E94CC11611571058105B5
:103F7000910511F00E943B2562E370E08DE49AE028
:103F80000E94C11288E00E94B5158111FBCF42E367
:103F900052E02EE731E090E080E0F901E80FF91FF0
:103FA0001082FA01E80FF91F108201968A309105FC
:103FB000A1F7265F3F4F465F5F4F92E022333907FC
:103FC00051F70E94EC24A20191010E945A25CB01D5
:103FD0000E9449180E94EC24A20191010E945A25D6
:103FE000609305010E94CC11709300036093FF025F
:103FF000FF24F394E0900903E110E8C30E94CC1180
:104000002091FF0230910003621B730B7093030336
:10401000609302030E94371586FD05C00E94371584
:1040200083FFF09203010E94371585FD08C0F092CE
:1040300004010E94CC1170936D0160936C010E9489
:10404000371587FD08C0F09202010E94CC117093D1
:104050006B0160936A010E94371584FD08C0F092DD
:1040600001010E94CC11709369016093680180E4A2
:104070000E94B515882321F080910301811128C089
:1040800088E00E94B515811184C180E80E94B515B1
:1040900081118BC180E10E94B515882309F4A5C167
:1040A0000E94CC1120910101211109C020916801C9
:1040B00030916901621B730B693C710588F01092A5
:1040C000010141E050E0509307034093060386C18D
:1040D000AFEFBFEFB0930503A09304031092030169
:1040E0009AEE892E92E0992E2EE6C22E21E0D22E53
:1040F000A6018401F80180819181A281B381FA0136
:1041000081939193A193B193AF01D80112968D91B0
:104110009C9113972091060330910703820F931F00
:1041200013969C938E9312970C5F1F4FB2E00A3F39
:104130001B0701F70E944C16811113C0AAEEB2E0D2
:10414000EEE6F1E041915191619171914D935D9352
:104150006D937D938EE7A82E81E0B82EAE16BF0634
:1041600089F780910403909105038F3F980709F028
:104170008AC1809108038630B1F16091EE0270919E
:10418000EF024091F0025091F102EAEEF2E08081FC
:104190009181861B970B22813381241B350BDB0118
:1041A000A21BB30BB183A083840F951F93838283DB
:1041B00034960E171F0759F70E944C16811113C031
:1041C000AAEEB2E0EEE6F1E0419151916191719178
:1041D0004D935D936D937D937EE7A72E71E0B72E8F
:1041E000AE16BF0689F72091020330910303809138
:1041F0009307909194078217930708F046C0AEE6A4
:10420000B1E0EAEEF2E040815181628173814D9329
:104210005D936D937D9380819181019691838083DD
:1042200034960E171F0779F70E944C16811127C08C
:10423000D6018D919C91BAE0B89FF001B99FF00D25
:104240001124E258FE4FD60112968D919C91E80FF1
:10425000F91FF082B4E0CB0ED11CEEE7F1E0EC15D3
:10426000FD0531F78091050190E00E9449180E94F8
:10427000EC24A20191010E945A25609305010E943D
:10428000CC11709300036093FF0242E352E02EE7EB
:1042900031E090E080E0FA01E80FF91FD901A80FA2
:1042A000B91F6C91608301968A309105A1F7265F52
:1042B0003F4F465F5F4F82E02233380751F710923D
:1042C000E6021092E7021092E8021092E902E091F1
:1042D0000C03F0910D03A0900601AE822091130112
:1042E0003091140158E2652E52E0752E42E1B12C56
:1042F000A12C61E1C62ED12C5AE05C9DD0015D9DC0
:10430000B00D1124B987A88790E080E070E060E0EC
:10431000D301A60FB71F5C9151110196A885B985ED
:10432000A60FB71FA258BE4F5C936F5F7F4F6A30D6
:10433000710571F70A970CF0E8C081E0C81AD1083E
:104340004150BAE06B1A71084111D6CFF0930D03BA
:10435000E0930C03EE81E093060130931401209367
:1043600013012EE731E0D12CC12CCA14DB0409F46F
:10437000E4C090E080E0F901E80FF91F1082019697
:104380008A309105C1F7FFEFCF1ADF0A265F3F4F52
:10439000ECCF80910301882309F477CEE1E0F0E0CF
:1043A000F0930503E093040399CE0E94CC11209171
:1043B0006A0130916B01621B730B809102018111C4
:1043C00004C0693C710508F48BCE10920201AA2446
:1043D000AA94BA2CB0920703A09206036FE070E093
:1043E00080E090E00E9414117BCE80E20E94B5151F
:1043F0008823C9F00E94CC112091040121110AC028
:1044000020916C0130916D01621B730B673971054E
:1044100008F466CE8FE090E0909394078093930722
:10442000109204015DCE84E00E94B515882309F442
:1044300057CE62E370E08DE49AE00E94C11284E0FE
:104440000E94B5158111FBCF20E040E95CE06CE0F3
:1044500070E086E390E00E94FB140E94C0150E9469
:10446000371582FFFCCF84E00E94B5158111FBCF88
:1044700062E370E08DE49AE00E94C1126CE271E0A8
:1044800080E090E0AFCF019709F0ADCE80910803B6
:10449000863009F4A8CE6091EE027091EF02A091EF
:1044A000F002B091F10223E030E0EAEEF2E0808128
:1044B0009181861B970B428153814A1B5B0B5B01E9
:1044C000A41AB50AB182A0828A0F9B1F93838283AC
:1044D00034960E171F0759F72150310931F70E9402
:1044E0004C16811180CEAAEEB2E0EEE6F1E04191E9
:1044F0005191619171914D935D936D937D934EE7D1
:1045000051E04E175F0799F76ECED501AA51BD4F06
:104510004C939FEFA91AB90A3196CF010E94452901
:10452000892B09F00DCFAE81AF5FAE832536310503
:1045300008F406CF2456310903CFC114D10489F001
:1045400062E370E086E291E00E94C11222E0C216AE
:10455000D10409F42DC10CF010C1CA94CD2809F47E
:104560001CC120E046E057E170E060E090E080E0B0
:104570000E94FB14D40112968D919C91B6E0B89FD5
:10458000B001B99F700D11246E5F7F4FF40120813F
:1045900031814AEF4203C001439F900D112425E071
:1045A00044E45DE08A599F4F0E94C61454E0850E92
:1045B000911C08151905F1F646EEA42E42E0B42E22
:1045C000F50181918111EF8082E0EA3EF807C9F799
:1045D000EE2059F132E3832E32E0932E06E610E00E
:1045E00022E0622E712CD12CC12CF401EC0DFD1DAA
:1045F0008081882339F023E044E45DE0B301C80101
:104600000E94C6149FEFC91AD90AA6E06A0E711C4F
:10461000BAE0CB16D10449F7EAE08E0E911C0650A1
:1046200011090A3FFFEF1F07D9F606EE12E0D80185
:104630002D918D01222389F02150330B4AEF420343
:10464000C001439F900D112420E042EE5CE062E047
:1046500070E08A599F4F0E94FB1452E00A3E1507F2
:1046600031F7EE2099F00E94F61620E046E057E17F
:1046700070E060E090E080E00E94C6140E94C015E7
:1046800066E970E080E090E00E941411D5012D9160
:104690005D01222389F02150330B4AEF4203C00110
:1046A000439F900D112421E042EE5CE062E070E057
:1046B0008A599F4F0E94FB140A151B0539F7EE20FB
:1046C00099F00E94F61620E046E057E170E060E0C5
:1046D00090E080E00E94C6140E94C01566E970E078
:1046E00080E090E00E9414119EE7A92E91E0B92E7F
:1046F00006E610E082E0882E912CD12CC12CF50129
:10470000EC0DFD1D8081882339F023E044E45DE059
:10471000B401C8010E94C6145FEFC51AD50A86E02D
:10472000880E911C9AE0C916D10449F7AAE0AA0E96
:10473000B11C065011090A3FBFEF1B07D9F60E94B2
:10474000F61620E046E057E170E060E090E080E09F
:104750000E94C6140E94C01510920703109206030F
:10476000109205031092040380911301909114019B
:1047700090939407809393073DCC83E0C816D104AF
:10478000F1F094E0C916D10409F0EBCE80910A0350
:1047900090910B03805E9C4F06C080910A0390911C
:1047A0000B038C599F4F90930B0380930A03D9CE30
:1047B00080910A0390910B03845D9E4FF4CF80910A
:1047C0000A0390910B038C509E4FEDCF8091010313
:1047D00020E0882309F462C042E45EE064E070E017
:1047E00084E190E00E94FB1462E280910A039091C0
:1047F0000B030E9472160E94C015809171008D7F7C
:104800008093710081E08093FE028CED9DE0909397
:10481000FD028093FC029093FB028093FA020E94B7
:10482000191207E310E060E08BE00E947E1061E067
:104830008AE00E947E1061E089E00E947E1063E2BF
:1048400070E080E090E00E94141161E08BE00E9433
:104850007E1061E08AE00E947E1060E089E00E94A4
:104860007E1066E970E080E090E00E941411015033
:104870001109C9F661E089E00E947E1061E08AE0DA
:104880000E947E1061E08BE00E947E1080E090E04C
:10489000892B09F43FCA0E9400003CCA4AE65DE049
:1048A00065E070E080E490E00E94FB140E94C01577
:1048B00064EF71E08CED90E00E94C11204E010E022
:1048C00061E089E00E947E1060E08AE00E947E1034
:1048D00066E970E080E090E00E94141160E089E0F9
:1048E0000E947E1061E08AE00E947E1066E970E01E
:1048F00080E090E00E9414110150110909F761E075
:1049000089E00E947E1061E08AE00E947E1068ECDF
:1049100070E087E390E00E94C11268EC70E080E0F4
:1049200090E00E94141168EE73E08CE190E00E9428
:10493000C11268EE73E080E090E00E941411A6CFEF
:104940008F929F92AF92BF92CF92DF92EF92FF929F
:10495000CF93DF93EC01688179818A819B81611516
:1049600071058105910521F464E279ED8BE597E00D
:104970002DE133EF41E050E00E945A2549015A01F0
:104980009B01AC01A7EAB1E40E9479256B017C018F
:10499000ACEEB4EFA50194010E948725C60ED71E88
:1049A000E81EF91EF7FE06C081E0C81AD108E1082A
:1049B00080E8F80AC882D982EA82FB82C701B60180
:1049C0009F77DF91CF91FF90EF90DF90CF90BF90D6
:1049D000AF909F908F9008958F929F92AF92BF92C9
:1049E000CF92DF92EF92FF926091150170911601C4
:1049F000809117019091180161157105810591054C
:104A000021F464E279ED8BE597E02DE133EF41E0AD
:104A100050E00E945A2549015A019B01AC01A7EAC6
:104A2000B1E40E9479256B017C01ACEEB4EFA501E5
:104A300094010E948725C60ED71EE81EF91EF7FEB8
:104A400006C081E0C81AD108E10880E8F80AC092DF
:104A50001501D0921601E0921701F0921801C701DA
:104A6000B6019F77FF90EF90DF90CF90BF90AF900F
:104A70009F908F9008956093150170931601809315
:104A80001701909318010895F999FECF92BD81BD49
:104A9000F89A992780B50895262FF999FECF1FBA65
:104AA00092BD81BD20BD0FB6F894FA9AF99A0FBE57
:104AB00001960895052E97FB1EF400940E9471251F
:104AC00057FD07D00E948C2507FC03D04EF40C94B0
:104AD000712550954095309521953F4F4F4F5F4F31
:104AE000089590958095709561957F4F8F4F9F4F5A
:104AF00008950E94AE25A59F900DB49F900DA49F90
:104B0000800D911D11240895B7FF0C9479250E9402
:104B10007925821B930B0895A1E21A2EAA1BBB1BB9
:104B2000FD010DC0AA1FBB1FEE1FFF1FA217B30779
:104B3000E407F50720F0A21BB30BE40BF50B661F8F
:104B4000771F881F991F1A9469F760957095809553
:104B500090959B01AC01BD01CF010895A29FB001CA
:104B6000B39FC001A39F700D811D1124911DB29FA1
:104B7000700D811D1124911D0895E89409C097FBC3
:104B80003EF490958095709561957F4F8F4F9F4F24
:104B90009923A9F0F92F96E9BB279395F695879568
:104BA00077956795B795F111F8CFFAF4BB0F11F42B
:104BB00060FF1BC06F5F7F4F8F4F9F4F16C08823D2
:104BC00011F096E911C0772321F09EE8872F762F08
:104BD00005C0662371F096E8862F70E060E02AF049
:104BE0009A95660F771F881FDAF7880F9695879535
:104BF00097F908950E94892608F48FEF0895FA0125
:104C0000EE0FFF1F309621053105A1F161157105E9
:104C100061F48038BFE39B0749F1689490388105BF
:104C200061F08038BFEF9B0741F099234AF5FF3FC1
:104C3000E1053105210519F1E8940894E795D901BA
:104C4000AA2329F4AB2FBE2FF85FD0F310C0FF5F6B
:104C500070F4A695E0F7F73950F019F0FF3A38F400
:104C60009F779F930DD00F9007FC9058089546F0C2
:104C70000C94B32660E070E080E89FE308954FE76E
:104C80009F775F934F933F932F930E9450272F91CD
:104C90003F914F915F910E94CC270C94572629F4A5
:104CA00016F00C94AD260C94FF260C94B3260E94AB
:104CB000E526A8F39638A0F707F80F92E8942BE3BF
:104CC0003AEA48EB5FE70E94E2270F920F920F92B9
:104CD0004DB75EB70F920E949827ECEAF0E00E9471
:104CE000B6264F915F91EF91FF91E595EE1FFF1F63
:104CF00049F0FE57E0684427EE0F441FFA95E1F7AC
:104D00004195550B0E9412270F9007FE0C94062721
:104D10000895990F0008550FAA0BE0E8FEEF16164C
:104D20001706E807F907C0F012161306E407F5079F
:104D300098F0621B730B840B950B39F40A2661F013
:104D4000232B242B252B21F408950A2609F4A140B6
:104D5000A6958FEF811D811D089597F99F6780E8C3
:104D600070E060E008959FEF80EC0895DF93CF93AB
:104D70001F930F93FF92EF92DF927B018C01689457
:104D800006C0DA2EEF010E94DF27FE01E894A5910C
:104D90002591359145915591A6F3EF010E94512837
:104DA000FE019701A801DA9469F7DF90EF90FF9078
:104DB0000F911F91CF91DF91089557FD9058440FA7
:104DC000551F59F05F3F71F04795880F97FB991F6A
:104DD00061F09F3F79F08795089512161306140627
:104DE000551FF2CF4695F1DF08C0161617061806B4
:104DF000991FF1CF86957105610508940895E8948F
:104E0000BB2766277727CB0197F908959B01AC0153
:104E100060E070E080E89FE30C94A6280C94AD2637
:104E20000C9418290E94E526D8F39923C9F3940F0E
:104E3000511DA3F39150504094F059F0882332F063
:104E4000660F771F881F91505040C1F79E3F510554
:104E50002CF7880F911D9695879597F908955F3FD8
:104E6000ACF0983E9CF0BB27869577956795B795F3
:104E700008F4B1609395C1F7BB0F58F711F460FFC8
:104E8000E8CF6F5F7F4F8F4F9F4FE3CF0C9400278A
:104E900016F00C9418290C94B32668940C94AD2643
:104EA0000E94E526A8F39923C1F3AEF3DF93CF93D5
:104EB0001F930F93FF92C92FDD2788232AF0219794
:104EC000660F771F881FDAF720E030E040E85FEBDD
:104ED0009FE3883920F0803E38F021968F770E943A
:104EE0003A28E4EDF0E004C00E943A28E1E0F1E065
:104EF0000E94B6268B01BE01EC01FB2E6F57710993
:104F00007595771F880B990B0E94BF2528E132E722
:104F100041E35FE30E94DF27AF2D9801AE01FF90D0
:104F20000F911F91CF91DF910E9451280C94342949
:104F3000FA01DC01AA0FBB1F9B01AC01BF5728F48B
:104F4000222733274427507820C0B75190F4AB2F45
:104F50000024469537952795011CA395D2F3002090
:104F600071F0220F331F441FB395DAF30ED00C9467
:104F7000392861307105A0E88A07B94630F49B01F1
:104F8000AC016627772788279078309621F0208318
:104F900031834283538308950E94DF270C94342980
:104FA0000E94262938F00E942D2920F0952311F027
:104FB0000C94AD260C94B32611240C9400270E9467
:104FC000DD2670F3959FC1F3950F50E0551F629F4A
:104FD000F001729FBB27F00DB11D639FAA27F00D52
:104FE000B11DAA1F649F6627B00DA11D661F829F79
:104FF0002227B00DA11D621F739FB00DA11D621F5E
:10500000839FA00D611D221F749F3327A00D611D7A
:10501000231F849F600D211D822F762F6A2F11245C
:105020009F5750409AF0F1F088234AF0EE0FFF1F8F
:10503000BB1F661F771F881F91505040A9F79E3FE6
:10504000510580F00C94AD260C9400275F3FE4F3EB
:10505000983ED4F3869577956795B795F795E7953C
:105060009F5FC1F7FE2B880F911D9695879597F945
:1050700008955058BB27AA270E9451280C94342920
:105080000E94262938F00E942D2920F039F49F3FF4
:1050900019F426F40C94B3260EF4E095E7FB0C9477
:1050A000AD26E92F0E94DD2658F3BA176207730771
:1050B0008407950720F079F4A6F50C94FF260EF4EA
:1050C000E0950B2EBA2FA02D0B01B90190010C0118
:1050D000CA01A0011124FF27591B99F0593F50F430
:1050E000503E68F11A16F040A22F232F342F442788
:1050F000585FF3CF469537952795A795F040539580
:10510000C9F77EF41F16BA0B620B730B840BBAF04F
:105110009150A1F0FF0FBB1F661F771F881FC2F7BA
:105120000EC0BA0F621F731F841F48F487957795CE
:105130006795B795F7959E3F08F0B0CF9395880F88
:1051400008F09927EE0F9795879508950E94BA2841
:105150000C9434290E942D2958F00E94262940F0F1
:1051600029F45F3F29F00C94AD2651110C940027CF
:105170000C94B3260E94DD2668F39923B1F35523DE
:1051800091F3951B550BBB27AA276217730784075A
:1051900038F09F5F5F4F220F331F441FAA1FA9F3F0
:1051A00035D00E2E3AF0E0E832D091505040E695DE
:1051B000001CCAF72BD0FE2F29D0660F771F881F3F
:1051C000BB1F261737074807AB07B0E809F0BB0B32
:1051D000802DBF01FF2793585F4F3AF09E3F510546
:1051E00078F00C94AD260C9400275F3FE4F3983ED2
:1051F000D4F3869577956795B795F7959F5FC9F72F
:10520000880F911D9695879597F90895E1E0660FAF
:10521000771F881FBB1F621773078407BA0720F028
:10522000621B730B840BBA0BEE1F88F7E095089591
:105230009F3F31F0915020F4879577956795B7950A
:10524000880F911D9695879597F9089500240A94E3
:105250001616170618060906089500240A94121651
:105260001306140605060895092E0394000C11F484
:10527000882352F0BB0F40F4BF2B11F460FF04C031
:105280006F5F7F4F8F4F9F4F0895AA1BBB1B51E14C
:1052900007C0AA1FBB1FA617B70710F0A61BB70BA6
:1052A000881F991F5A95A9F780959095BC01CD014B
:1052B0000895EE0FFF1F0590F491E02D0994F894E6
:0252C000FFCF1E
:1052C20010010101010801FFFFFFFF00E1000000E2
:1052D200000000200301000000010503070205048D
:1052E2000703050406030504070305070602050371
:1052F200070203040500C1808100000000000000D5
:105302006B0F47118C0F810FD20F900FAE0F000061
:0A53120000003F15D8116F166E164B
:00000001FF
