:100000000C94180E0C94400E0C94400E0C94400E60
:100010000C94400E0C94400E0C94400E0C94400E28
:100020000C94400E0C94400E0C941C190C948B19DB
:100030000C94400E0C94400E0C94400E0C94400E08
:100040000C94400E0C94400E0C94400E0C94400EF8
:100050000C94400E0C94400E0C94400E0C94BD1B5E
:100060000C94400E0C94400E0C94400E0C94400ED8
:100070000C94400E0C94400E0C94400E0C94400EC8
:100080000C94071C0C94400E0C94400E0C94400EE3
:100090000C94400E0C94400E0C94400E0C94400EA8
:1000A0000C94400E0C94400E0C94400E07634236A4
:1000B000B79BD8A71A39685618AEBAAB558C1D3CF9
:1000C000B7CC5763BD6DEDFD753EF6177231BF00BD
:1000D0000000803F08000000BE922449123EABAAF7
:1000E000AA2ABECDCCCC4C3E00000080BEABAAAA52
:1000F000AA3E00000000BF000000803F000000009A
:1001000000084178D3BB4387D1133D190E3CC3BDD2
:100110004282AD2B3E68EC8276BED98FE1A93E4C7F
:1001200080EFFFBE01C4FF7F3F00000000000A0A0D
:10013000FFFFFFFF0101FFFFFFFF030303030202B5
:1001400003030303FFFFFF0F0FC3C3FFFFFF0303FF
:100150000303030303030303FFFFFFC3C30F0FFFE7
:10016000FFFF03030303030303030303FFFFFF0373
:1001700003CFCFFFFFFF03030303030303030303C3
:10018000FFFFFF03033F3FFFFFFF030303030303DF
:1001900003030303FFFFFF0303F3F3FFFFFF030367
:1001A0000303030303030303FFFFFF87878787FF1F
:1001B000FFFF03030303030303030303FF037901A7
:1001C00001CDCD0101FF030302020202020202037C
:1001D000FFFFDF8F07030327FFFF03030303030270
:1001E00002030303FFFFFFFFFFFFFFFFFFFF030308
:1001F00003030303030303031440FF0101B98989C7
:1002000009890101FF0101010101010101FFFF0055
:1002100000EA2AAAE6000000FF027282826212123D
:10022000E203FF000016041206000000FF00CC22CB
:100230002222CC000000FF000000000000000000AF
:10024000FF00C445C555DC000000FF202020202011
:1002500020202020FF000104010501000000FF0014
:100260000077115171010000FF0000000000000044
:100270000000FF000012051505000000FF0000004F
:10028000000000000000FF808080808080808080EF
:10029000FF00000000000000000000000000003E21
:1002A0005B4F5B3E3E6B4F6B3E1C3E7C3E1C183CE6
:1002B0007E3C181C577D571C1C5E7F5E1C00183C42
:1002C0001800FFE7C3E7FF0018241800FFE7DBE78B
:1002D000FF30483A060E2629792926407F05050772
:1002E000407F05253F5A3CE73C5A7F3E1C1C0808CE
:1002F0001C1C3E7F14227F22145F5F005F5F060993
:100300007F017F006689956A606060606094A2FFEB
:10031000A29408047E040810207E201008082A1CDD
:1003200008081C2A08081E101010100C1E0C1E0CA9
:1003300030383E3830060E3E0E0600000000000049
:10034000005F00000007000700147F147F14242AB8
:100350007F2A12231308646236495620500008078A
:100360000300001C2241000041221C002A1C7F1CAB
:100370002A08083E080800807030000808080808AD
:10038000000060600020100804023E5149453E0014
:10039000427F400072494949462141494D33181472
:1003A000127F1027454545393C4A494931412111C1
:1003B00009073649494936464949291E00001400B3
:1003C00000004034000000081422411414141414D6
:1003D000004122140802015909063E415D594E7C34
:1003E0001211127C7F494949363E414141227F41E9
:1003F00041413E7F494949417F090909013E414147
:1004000051737F0808087F00417F41002040413F31
:10041000017F081422417F404040407F021C027F40
:100420007F0408107F3E4141413E7F090909063E95
:100430004151215E7F091929462649494932030164
:100440007F01033F4040403F1F2040201F3F403876
:10045000403F631408146303047804036159494D51
:1004600043007F4141410204081020004141417F87
:1004700004020102044040404040000307080020FD
:10048000545478407F2844443838444444283844FD
:1004900044287F385454541800087E090218A4A434
:1004A0009C787F0804047800447D40002040403D53
:1004B000007F1028440000417F40007C04780478CD
:1004C0007C080404783844444438FC182424181860
:1004D000242418FC7C0804040848545454240404BC
:1004E0003F44243C4040207C1C2040201C3C4030A9
:1004F000403C44281028444C9090907C4464544CD8
:100500004400083641000000770000004136080032
:1005100002010204023C2623263C1EA1A161123ADC
:100520004040207A38545455592155557941215429
:10053000547841215554784020545579400C1E522E
:1005400072123955555559395454545939555454D2
:10055000580000457C410002457D420001457C4039
:10056000F0292429F0F0282528F07C545545002056
:1005700054547C547C0A097F4932494949323248F3
:10058000484832324A4848303A4141217A3A42405A
:100590002078009DA0A07D39444444393D4040402E
:1005A0003D3C24FF2424487E4943662B2FFC2F2BFF
:1005B000FF0929F620C0887E0903205454794100A0
:1005C00000447D413048484A32384040227A007A1F
:1005D0000A0A727D0D19317D2629292F28262929FD
:1005E000292630484D40203808080808080808081F
:1005F000382F10C8ACBA2F102834FA00007B000046
:1006000008142A142222142A14089500220095AAFC
:10061000005500AAAA55AA55AA000000FF00101014
:1006200010FF00141414FF001010FF00FF1010F052
:1006300010F0141414FC001414F700FF0000FF0065
:10064000FF1414F404FC141417101F10101F101FB3
:100650001414141F00101010F0000000001F1010E0
:1006600010101F10101010F010000000FF101010DC
:10067000101010101010FF10000000FF140000FFF9
:1006800000FF00001F10170000FC04F414141710E2
:10069000171414F404F40000FF00F71414141414D5
:1006A0001414F700F7141414171410101F101F144B
:1006B0001414F4141010F010F000001F101F0000AC
:1006C000001F14000000FC140000F010F01010FFD8
:1006D00010FF141414FF141010101F00000000F07D
:1006E00010FFFFFFFFFFF0F0F0F0F0FFFFFF000052
:1006F000000000FFFF0F0F0F0F0F38444438447CF9
:100700002A2A3E147E02020606027E027E026355FB
:100710004941633844443C04407E201E2006027E4A
:10072000020299A5E7A5991C2A492A1C4C7201725C
:100730004C304A4D4D303048784830BC625A463DC6
:100740003E494949007E0101017E2A2A2A2A2A447B
:10075000445F444440514A444040444A51400000B0
:10076000FF0103E080FF000008086B6B08361236BB
:100770002436060F090F060000181800000010109C
:10078000003040FF0101001F01011E00191D17125A
:10079000003C3C3C3C000000000000000000250044
:1007A00028002B002E003100040404040403040577
:1007B00002020202040302020202060606060606FE
:1007C00004040202020404040802011040804010E4
:1007D0002040804080080204018040201002011067
:1007E0008010204040200000000200090F0000039C
:1007F0000401000C000000000000000000000000E8
:100800000000000000F0F89C8E8783878E9CF8F033
:100810000000FEFF0303030303070EFCF80000FEC5
:10082000FF0303030303070EFCF80000FFFF0000B3
:100830000000000000FFFF0000FEFF83838383832E
:10084000C7EE7C380000F8FC0E07030303070EFC1C
:10085000F800003F7FE0C08080C0E07F3FFFFF01E5
:10086000010101010101FFFF0000FFFF0C0C0C0C56
:100870001C3E77E3C100007FFFC0C0C0C0C0E07075
:100880003F1F00001F3F70E0C0C0C0E0703F1F006E
:10089000007FFFC1C1C1C1C1E3773E1C00001F3F03
:1008A00070E0C0C0C0E0703F1F000000000001FF0A
:1008B000FF01000000D5F08D14A1C881CFD9F1AFA0
:1008C000200005040E0A0A0A0E0E040406040E0295
:1008D0000E080E0E080C080E08080E0A0A0E080E66
:1008E000020E0E0A0E0206080808080E0E0A0E0A6C
:1008F0000E0E080E0A0E00000000000000000000AE
:1009000000000000000000000000000000000000E7
:1009100000000000000000000000000000000000D7
:1009200000000000000000000000000000000000C7
:1009300000000000000000000000000000000000B7
:1009400000000000000080408040804080408040E7
:100950008040804080000000000000000000000097
:10096000000000F0E0C0C0C0C0C0C0C4FCFC00007B
:100970000000000000000000000000000000000077
:1009800000000000000000000000004828784848EF
:1009900078000000000000000000000000000000DF
:1009A000000000C84848D8083000000000000000DF
:1009B0000000000000000000000000000000000037
:1009C000000000000050AA55AA55AA55AA55AA55DC
:1009D000AA55AAFFFFFFFEF800000000000000007B
:1009E000000000C3C1C0C0C0C0C0C0C8CFCF00009D
:1009F00000000000000000000000000000000000F7
:100A0000000000000000000000704077555577009E
:100A100000000000000000000000000000000000D6
:100A20000000000505151D0000000000000000008A
:100A3000000000000040A040A040A040A040A04016
:100A4000A040A040A855AA55AA55AA55AA55AA55EE
:100A5000AA55FEFFFFFFFF0100000000000000009C
:100A60000000001F1F100003030000909F9F000064
:100A70000000000000000000000000000000000076
:100A80000000000000000000000000171155770072
:100A900000000000000080000038A8A8B808080086
:100AA00000000052525ED2121E0000000000000042
:100AB00000000040A855AA55AA55AA55AA55AA55FE
:100AC000AA55AA55AA55AA55AA55AA55AA55AA552E
:100AD000AAFFFFFFFFFF030000000000000000006E
:100AE0000000007E3C18181818181818FFFF0000A6
:100AF00000000000000000000000000000000000F6
:100B00000000008080000000000000A494BC24A429
:100B10003C0000000000010202030202020000008B
:100B2000000000DC54555D101000000000000000C3
:100B3000000000050A1D3A7DFAFDFAFDFAFDFAFDF6
:100B4000AA55AA55AA55AA55AA55AA55AA55AA55AD
:100B5000FAFFFFFFFF03000000000000000000009C
:100B60000000003E1C3870E0C0F03839F9F1000098
:100B70000000000000000000000000000000000075
:100B80002205250808000000000000BBAAABBA89B6
:100B900088000000000000000000000000000000CD
:100BA000000000DD5555DD040400000000000000D9
:100BB00000000000000000000000000000000050E5
:100BC000AA55AA55AA55AA55AA55AA55AA55AAD5AD
:100BD000FFFFFFFF07000000000000000000000012
:100BE0000000008FC6C6C6C6C7C7C6C6C78F0000EE
:100BF00000000000000000000000000000000000F5
:100C00000000000000000000000000CB2A2A6B203A
:100C100028000000000000000000000000000000AC
:100C20000C10101915151500000000000000000040
:100C300000000000000000000000000000000003B1
:100C40000E1F3E7F7E7F7E7F7EFFFEFFFEFFFEFF4C
:100C5000FFFFFF0F00000000000000000000000088
:100C60000000009F3F303030303030303F1F0000F8
:100C70000000000000000000000000000000000074
:100C80000000000000000000000000000000000064
:100C90000000000000000000000000000000000054
:100CA0000000000000000000000000000000000044
:100CB0000000000000000000000000000000000034
:100CC0000000000000000000000000000000000024
:100CD0000000000000000000000000000000000014
:100CE0000000003F1F0E0E0E0E0E0E000E0E0E0028
:100CF0000000000000000000000000102800F804C0
:100D000004242424E42424E404040404F800FF005C
:100D10000000003CA5B9A19D00000000FF00FF00FD
:100D2000000000F3846414E400000000FF00FF00F2
:100D30000000009C425E528C00000000FF000F107B
:100D40001010101312121213121210100F063CF38F
:100D50006D9E9E6DF33CDBE7E7DB3CCFB67979B661
:100D6000CFF36D9E9E6DF33CDBE7E7DB3CCFB679BE
:100D700079B6CFF36D9E9E6DF30C0B07070B0C55E8
:100D8000AA55AA55AA55AA55AA55AA55AA55AA556B
:100D9000AA55AA55AA55AA55AA55AA55AA55AA555B
:100DA000AA55AA55AA55AA55AA050A050A050A066A
:100DB00006152A152A152A3F3F3F3F3F3F000000F6
:100DC0000000003F352B352B3F3F232925313F3F86
:100DD000212D2D213F10380000FC0202F292925288
:100DE0001212F20202FC000000FF00005E525E5090
:100DF0008E00000000FF000000FF00009252D2525F
:100E00008D00000000FF000000FF0000C32023222F
:100E1000C100000000FF000000FF0000089995A538
:100E20002400000000FF000000FF0000171017342E
:100E30005300000000FF0000001F20202420242475
:100E400024242420201F000B02C8000601C8004AE9
:100E500001C800B801F4018801F4010601F4010B96
:100E600002F4010601F4014A01C800B801C8008873
:100E700001C8000601C800B801F401DC00F4010655
:100E800001C8005D01F4012601C800DC00C800B8FB
:100E900001F401DC00F4010601F4018801C8002618
:100EA00001C8005D01C8000B02D007008050380067
:100EB00000E01008080808080808080808080808DA
:100EC00008080808080808080808080808080808A2
:100ED0000808080808080808080808080808080892
:100EE0000808080808080808080808080808080882
:100EF000088888888888880808080810E0000000AA
:100F000000FF0000000000006C6C000C0C000C0CDA
:100F1000000C0C000C0C006C6C0000000080000049
:100F200029A9A9AF0929090000000000000000005C
:100F300000000000000000000000000000000000B1
:100F4000679190906000010700000000FF00000022
:100F500000FF000000000000DBDB000000000000DC
:100F600000000000000000DBDB00000000030404C0
:100F7000979494947310100000000000000000008B
:100F800090909090700000000000000000C00000F1
:100F9000925252528E00000000000000FF0000003C
:100FA00000FF000000000000B6B6000000000000D6
:100FB00000000000000000B6B600000000000000C5
:100FC0009E504C429C000000000000000000000009
:100FD000DC425E524C0000000000000000010202F2
:100FE0008B8A8A1AA900000000000000FF000000A0
:100FF00000FF0000000000006D6D00000000000018
:10100000000000000000006D6D0000000000000006
:1010100099A4A4A4990000000000000000000000B2
:1010200006050504040000000000000000000000A8
:10103000672427247320200000000000FF00000028
:1010400000FF0000000000001B1B0018180018180B
:10105000001818001818001B1B00000000000000FA
:101060007008784932000000000000000000000015
:101070000000000000000000000000000000000070
:10108000878806818E80808080000000FF0000003D
:10109000000F102020202020202020202020202091
:1010A0002020202020202020202020202020202040
:1010B0002020202020202020202020202020202030
:1010C0002020202020202020202020202020202020
:1010D0002121202021212121212020100F0000503A
:1010E000380000E010080808080808080808080880
:1010F0000808080808080808080808080808080870
:10110000080808080808080808080808080808085F
:10111000080808080808080808080808080808084F
:101120000808080808080808080808080810E00067
:10113000000000FF00000066929292670202000029
:101140000000CF29292927010100000000292929B1
:101150002F89290900000000000000006C6C000CC1
:101160000C000C0C000C0C000C0C006C6C00000053
:101170000080000029A9A9AF092909000000FF008B
:10118000000000FF00000038403008700000000040
:10119000000098898989DD8888000000000301012A
:1011A000010301010000000000000000DBDB000083
:1011B0000000000000000000000000DBDB00000079
:1011C0000003040497949494731010000000FF002F
:1011D000000000FF000000F692F282770202000099
:1011E000000099A4A4A499000000000000000000E1
:1011F000000000000000000000000000B6B6000083
:101200000000000000000000000000B6B600000072
:10121000000000009E504C429C0000000000FF00B7
:10122000000000FF000000C242424AEE40400000C1
:10123000000004040404034040000000000000001B
:101240000000000000000000000000006D6D0000C4
:1012500000000000000000000000006D6D000000B4
:101260000000000099A4A4A4990000000000FF0061
:10127000000000FF0000000800080808080800003F
:1012800000000909090F09292600000000000000DC
:101290000000000000000000000000001B1B001800
:1012A00018001818001818001818001B1B00000060
:1012B0000000000070087849320000000000FF00C4
:1012C0000000000F1020202020202020202020209F
:1012D000202020202020202020202020202020200E
:1012E00020202020202020202020202020202020FE
:1012F00020202020202020202020202020202020EE
:1013000020202020202020202020202020100F001E
:10131000000000E010080808080808080808080885
:10132000080808080808080808080808080808083D
:10133000080808080808080808080808080808082D
:10134000080808080808080808080808080808081D
:101350000808080808080808080808080810E00035
:10136000000000FF000000669292926702020000F7
:101370000000CF292929270101000000002929297F
:101380002F8929090000000000000000B0BC0C00FB
:101390000C0C000C0C000C0C000C0CD8D80000003D
:1013A0000080000029A9A9AF092909000000FF0059
:1013B000000000FF0000003840300870000000000E
:1013C000000098898989DD888800000000030101F8
:1013D0000103010100000000000000006D6D00002D
:1013E0000000000000000000000000B6B600000091
:1013F0000003040497949494731010000000FF00FD
:10140000000000FF000000F692F282770202000066
:10141000000099A4A4A499000000000000000000AE
:10142000000000000000000000000000DBDB000006
:1014300000000000000000000000006D6D000000D2
:10144000000000009E504C429C0000000000FF0085
:10145000000000FF000000C242424AEE404000008F
:1014600000000404040403404000000000000000E9
:10147000000000000000000000000000B6B6000000
:101480000000000000000000000000DBDB000000A6
:101490000000000099A4A4A4990000000000FF002F
:1014A000000000FF0000000800080808080800000D
:1014B00000000909090F09292600000000000000AA
:1014C0000000000000000000000000000D0D1818D2
:1014D00000181800181800181800181E0600000040
:1014E0000000000070087849320000000000FF0092
:1014F0000000000F1020202020202020202020206D
:1015000020202020202020202020202020202020DB
:1015100020202020202020202020202020202020CB
:1015200020202020202020202020202020202020BB
:1015300020202020202020202020202020100F00EC
:10154000000000E010080808080808080808080853
:10155000080808080808080808080808080808080B
:1015600008080808080808080808080808080808FB
:1015700008080808080808080808080808080808EB
:101580000808080808080808080808080810E00003
:10159000000000FF000000669292926702020000C5
:1015A0000000CF292929270101000000002929294D
:1015B0002F8929090000000000000000D8D80C0C79
:1015C000000C0C000C0C000C0C000CBCB00000005B
:1015D0000080000029A9A9AF092909000000FF0027
:1015E000000000FF000000384030087000000000DC
:1015F000000098898989DD888800000000030101C6
:10160000010301010000000000000000B6B6000068
:1016100000000000000000000000006D6D000000F0
:101620000003040497949494731010000000FF00CA
:10163000000000FF000000F692F282770202000034
:10164000000099A4A4A4990000000000000000007C
:101650000000000000000000000000006D6D0000B0
:101660000000000000000000000000DBDB000000C4
:10167000000000009E504C429C0000000000FF0053
:10168000000000FF000000C242424AEE404000005D
:1016900000000404040403404000000000000000B7
:1016A000000000000000000000000000DBDB000084
:1016B0000000000000000000000000B6B6000000BE
:1016C0000000000099A4A4A4990000000000FF00FD
:1016D000000000FF000000080008080808080000DB
:1016E00000000909090F0929260000000000000078
:1016F000000000000000000000000000061E1800AE
:1017000018180018180018180018180D0D000000FF
:101710000000000070087849320000000000FF005F
:101720000000000F1020202020202020202020203A
:1017300020202020202020202020202020202020A9
:101740002020202020202020202020202020202099
:101750002020202020202020202020202020202089
:1017600020202020202020202020202020100F00BA
:10177000008040AA010201020102010201020102ED
:101780000102010201020102010201020102010241
:101790000102010201020102010201020102010231
:1017A0000102010201020102010201020102010221
:1017B0000102010201020102010201020102010211
:1017C0000102010201020102010201020102010201
:1017D000010201020102010201020102010201FFF4
:1017E0000101B9898909890101FF01010101010193
:1017F0000101FFAA0000000000000000000000003E
:1018000000000000000000000000000000000000D8
:1018100000000000000000000000000000000000C8
:1018200000000000000000000000000000000000B8
:1018300000000000000000000000000000000000A8
:101840000000000000000000000000000000000098
:10185000000000000000000000000000000000FF89
:101860000000EA2AAAE6000000FF027282826212E9
:1018700012E203AA000000000000000000000000C7
:101880000000000000000000000000000000000058
:101890000000000000000000000000000000000048
:1018A0000000000000000000000000000000000038
:1018B0000000000000000000000000000000000028
:1018C0000000000000000000000000000000000018
:1018D000000000000000000000000000000000FF09
:1018E000000016041206000000FF00CC222222CCC9
:1018F000000000AA0000000000000000000000003E
:1019000000000000000000000000000000000000D7
:1019100000000000000000000000000000000000C7
:1019200000000000000000000000000000000000B7
:1019300000000000000000000000000000000000A7
:101940000000000000000000000000000000000097
:10195000000000000000000000000000000000FF88
:10196000000000000000000000FF00C445C555DC79
:10197000000000AA000000000000000000000000BD
:101980000000000000000000000000000000000057
:101990000000000000000000000000000000000047
:1019A0000000000000000000000000000000000037
:1019B0000000000000000000000000000000000027
:1019C0000000000000000000000000000000000017
:1019D000000000000000000000000000000000FF08
:1019E000202020202020202020FF000104010501CC
:1019F000000000AA0000000000000000000000003D
:101A000000000000000000000000000000000000D6
:101A100000000000000000000000000000000000C6
:101A200000000000000000000000000000000000B6
:101A300000000000000000000000000000000000A6
:101A40000000000000000000000000000000000096
:101A5000000000000000000000000000000000FF87
:101A6000000077115171010000FF0000000000002C
:101A7000000000AA000000000000000000000000BC
:101A80000000000000000000000000000000000056
:101A90000000000000000000000000000000000046
:101AA0000000000000000000000000000000000036
:101AB0000000000000000000000000000000000026
:101AC0000000000000000000000000000000000016
:101AD000000000000000000000000000000000FF07
:101AE000000012051505000000FF000000000000C6
:101AF000000000AA804080408040804080408040BC
:101B000080408040804080408040804080408040D5
:101B100080408040804080408040804080408040C5
:101B200080408040804080408040804080408040B5
:101B300080408040804080408040804080408040A5
:101B40008040804080408040804080408040804095
:101B5000804080408040804080408040804080FFC6
:101B6000808080808080808080FF000000000000F6
:101B7000000000080B00020202000009040000013E
:101B800002020000052400100105240101010424C3
:101B90000206052406000107058103100040090420
:101BA0000100020A000000070502024000000705CC
:101BB00083024000000403090412010002EF020145
:101BC00040412336800001010203014172647569BE
:101BD0006E6F204C4C430041726475626F79000750
:101BE000051E12121212121E1E0808080A0C081EE8
:101BF00002021E10121E1E10101C10101E101010BB
:101C00001E1212121E10101E02021E1E12121E02A0
:101C1000020E1010101010101E1E12121E12121E94
:101C20001E10101E12121E000000000000009B1C5F
:101C300011241FBECFEFDAE0DEBFCDBF11E0A0E080
:101C4000B1E0E4E5F2E502C005900D92AA35B107D6
:101C5000D9F727E0AAE5B1E001C01D92A739B20784
:101C6000E1F71EE0C8E1DEE004C02197FE010E941A
:101C70002229C731D107C9F70E94D01C0C9428290A
:101C80000C940000809170010895E1E3F3E0A0E07E
:101C9000B8E000800EBC8111012C1197A0FDFDCF92
:101CA0000192B9F70DB4089580E0E1E3F3E081110A
:101CB0008FEF002481938193819381930394D1F7D3
:101CC00008954F925F926F927F928F929F92AF9200
:101CD000BF92CF92DF92EF92FF920F931F93CF9319
:101CE000DF93FB01E00FF11D1E161F060CF08AC0EA
:101CF000603471050CF086C0DB0177FF04C0AA27B1
:101D0000BB27A61BB70BA770BB27EB0177FD279658
:101D1000E3E0D595C795EA95E1F777FF07C02197EE
:101D200068E070E0FB01EA1BFB0BDF0130E0069589
:101D300006950695802E912C8A01AE015695542F5A
:101D4000442757954795480F591F4F5C5C4FBE017C
:101D5000E0E8F0E07F01E81AF90A88E090E03C0151
:101D60006A1A7B0A6F3FFFEF7F070CF43BC090E0DD
:101D700080E05A01E0E8AE0EB11C6F3F760709F42F
:101D800052C0FC01E00FF11FE4916A01C80ED91E98
:101D9000F0E02F010A2E01C0440C0A94EAF7F60184
:101DA0005080452840821097B1F06730710599F056
:101DB000F801E80FF91FE4916501C80ED91EF0E0A3
:101DC0002F01062C02C0559447940A94E2F7F601BD
:101DD0005080452840820196821793071CF4E8162C
:101DE000F90659F66F5F7F4F020F131F40585F4F80
:101DF000CB018C1B9D0B8815990524F46830710567
:101E000009F0B0CFDF91CF911F910F91FF90EF902C
:101E1000DF90CF90BF90AF909F908F907F906F900A
:101E20005F904F900895109709F0C2CFD4CFFC0176
:101E300080913003882311F13FB7F89482E08093BA
:101E4000E9002091F200822F90E01816190614F490
:101E500081E090E0882339F0289844E640932F03EE
:101E60004091F1004083222339F02091F2002111AA
:101E700003C02BE62093E8003FBF08958FEF9FEF4C
:101E800008952FB7F89483E08093E9009091E800DB
:101E9000892F807295FF04C09091F20080E4891B25
:101EA0002FBF08958091270381110DC082E0809398
:101EB000230384E0809324031092260310922503C9
:101EC00081E08093270383E293E00895CF93DF932B
:101ED0001F92CDB7DEB76983DC01ED91FC910280E2
:101EE000F381E02D41E050E0BE016F5F7F4F099527
:101EF0000F90DF91CF91089583E08093E900809166
:101F0000F200882319F08AE38093E80008950E9484
:101F1000410F90E00895CF93DF931F92CDB7DEB7C6
:101F2000FC018485958597FD08C02FEF3FEF35872D
:101F300024870F90DF91CF910895CE0101960E94E2
:101F4000170F019719F4898190E0F3CF8FEF9FEF7E
:101F5000F0CF0F931F93CF93DF931F92CDB7DEB7D0
:101F60008C01FC018485958597FF0BC0CE010196FD
:101F70000E94170F019771F4898190E0F80195870D
:101F80008487F801848595850F90DF91CF911F910B
:101F90000F9108958FEF9FEFF1CFFC018485958518
:101FA00097FD0BC09FB7F89482E08093E900809181
:101FB000F2009FBF90E0019608959FB7F89482E0E9
:101FC0008093E9008091F2009FBF90E008954091D6
:101FD0001D0350911E0320911B0330911C034217D7
:101FE0005307B4F49091E8009570E1F39091E80004
:101FF00092FD19C08093F10080911D0390911E0302
:1020000001968F739927892B19F48EEF8093E8003E
:1020100080911D0390911E03019690931E0380935F
:102020001D0381E0089580E00895DF92EF92FF9212
:102030000F931F93CF93DF93D82E8A01EB017B017F
:10204000E40EF51ECE15DF0559F0D7FE12C0FE01D5
:1020500084910E94E70F21968111F4CF0FEF1FEFBB
:10206000C801DF91CF911F910F91FF90EF90DF900A
:1020700008958881EECF0F931F93CF93DF931F9224
:10208000CDB7DEB782E0898342E450E063E77BE1CD
:1020900080E80E9415100E94520FDC0112960D91EB
:1020A0001C910115110589F0D801ED91FC91028078
:1020B000F381E02DBE016F5F7F4FC801099597FD49
:1020C00004C0F80100851185ECCF89810F90DF9164
:1020D000CF911F910F910895615030F02091F10040
:1020E000FC0120830196F8CF289884E680932F0383
:1020F0000895AF92BF92CF92DF92EF92FF920F932B
:102100001F93CF93DF936C017B018B01040F151F8D
:10211000EB015E01AE18BF08C017D10759F06991F5
:10212000D601ED91FC910190F081E02DC601099559
:10213000892B79F7C501DF91CF911F910F91FF9006
:10214000EF90DF90CF90BF90AF900895282F30E0B0
:10215000F901EA51F84F9491F901E953F84F84914C
:102160002855384FF9012491222309F430C09923CE
:10217000E9F091509F30D0F4E92FF0E0EE53FF4E9C
:102180000C942229F010F410D110E810EC10D610A5
:10219000D610D610F710FD10011105110B11D61035
:1021A0000F11909180009F7790938000E22FF0E0D4
:1021B000EE0FFF1FE656F84FA591B4919FB7F89424
:1021C000EC91611132C080958E238C939FBF08954E
:1021D000909180009F7DE8CF90918000977FE4CF21
:1021E00094B59F7794BDE2CF94B59F7DFBCF90913E
:1021F00090009F7790939000D9CF909190009F7D11
:10220000F9CF90919000977FF5CF9091C0009F7784
:102210009093C000CBCF9091C0009F7DF9CF90915B
:10222000C200977F9093C200C1CF8E2BCECF3FB715
:10223000F89480916C0190916D01A0916E01B09124
:102240006F0126B5A89B05C02F3F19F00196A11D6F
:10225000B11D3FBFBA2FA92F982F8827BC01CD01F0
:10226000620F711D811D911D42E0660F771F881F4F
:10227000991F4A95D1F708958F929F92AF92BF927E
:10228000CF92DF92EF92FF926B017C010E941711B7
:102290004B015C01C114D104E104F104B9F00E94C6
:1022A0001711681979098A099B09683E73408105ED
:1022B000910580F321E0C21AD108E108F10888EE07
:1022C000880E83E0981EA11CB11CE4CFFF90EF9014
:1022D000DF90CF90BF90AF909F908F9008958F9296
:1022E0009F92AF92BF92CF92DF92EF92FF920F93A5
:1022F0001F93CF93DF936C017B018A0180911101C1
:10230000882309F45CC080913003882309F457C006
:102310008091220380FF05C08091E000826080935D
:10232000E000E801B12C8AEFA82E93E0892E2AE381
:10233000922E209711F4BB20D9F10E94410F8111F8
:102340000AC0AA94AA20D9F161E070E080E090E090
:102350000E943C11EECF8C171D0611F00CF08C2F53
:102360009FB7F8948092E9002091E80025FD02C013
:102370009FBFDFCF282F30E0C21BD30BF701815066
:1023800020F041914093F100FACFE20EF31EBB2002
:1023900021F09092E800B12CEBCF8091E80085FD10
:1023A000E7CF9092E800BB24B394209709F3F3CFD2
:1023B0005D9884E680932103101611063CF081E0BD
:1023C00090E0F6019383828310E000E0C801DF9182
:1023D000CF911F910F91FF90EF90DF90CF90BF9022
:1023E000AF909F908F9008952FB7F89460916801F7
:1023F0007091690180916A0190916B012FBF0895DE
:1024000020910503E0910303F0910403CF010296AC
:102410009093040380930303222319F085919491F0
:102420000895808191810895CF92DF92EF92FF927B
:10243000CF93DF930E940012811520E8920791F458
:10244000809171008D7F8093710010929100469869
:10245000479810926001DF91CF91FF90EF90DF904D
:10246000CF90089521E020936001813020E8920709
:1024700051F480910103909102039093040380939F
:1024800003030E94001297FD05C020915F012223E3
:1024900009F454C020915E01211150C021E0209325
:1024A0006101EC01DF77209709F04BC081E0809358
:1024B000620146983FE9C32E3FE0D32EE12CF12C78
:1024C000CAEFD0E0E0918F07F09190070995811154
:1024D00003C081E08093620180916101882329F02B
:1024E00080916201882309F43FC047980E9400123E
:1024F0000097F1F19C01DE010E947725DC01CB0100
:1025000029E0B595A795979587952A95D1F71092CB
:1025100090002AE020939100D0929900C0929800F8
:102520008093630190936401A0936501B093660169
:10253000809171008260809371008DCF1092610153
:10254000B0CF9E0150E040E060E472E48FE090E0A4
:102550000E94232569017A0181E0C81AD108E108A7
:10256000F10810926201AECF4699BFCF479ABECF15
:102570008FEF9FEFDC01CBCF9C01E1E7F0E0908192
:102580009D7F908310920503E1E8F7E0F093040348
:10259000E0930303F0930203E0930103318320836C
:1025A0007383628380E090E8958384830C94141293
:1025B0004F925F926F927F928F929F92AF92BF9253
:1025C000CF92DF92EF92FF920F931F93CF93DF93FF
:1025D0004C015901FC2DC02FD0E0CE01880D991D72
:1025E000181619060CF06CC020E8821691040CF045
:1025F00067C09B012E0D311D121613060CF060C032
:10260000603471050CF05CC04115510509F458C0E7
:10261000E62FE770FE2EDB0177FD179633E0B595C8
:10262000A7953A95E1F73A2F77FF04C0FF2011F004
:102630003FEF3A0F662777276819790997FC02C0A0
:1026400070E060E0803891050CF44BC090E8981978
:10265000961BA32F032E000CBB0B1A2F10953F3F88
:102660000CF010E021E08E2D877009F420E0E69454
:10267000E694E694E20EAE0DB11D19971CF028E029
:10268000E22EE31AE11A310F20E83203D0011124BF
:10269000A80DB91DA60FB71F019F600D711D112454
:1026A000460F571F0F2D0F2C000C110BF33009F4A0
:1026B0001CC1C8F4F13009F4D0C0F23009F47CC078
:1026C000DF91CF911F910F91FF90EF90DF90CF900E
:1026D000BF90AF909F908F907F906F905F904F9042
:1026E0000895902FB5CFFA3FB1F1232F2E0DFB3F68
:1026F00039F7321729F3BD016F5C7C4FD12CC12C07
:10270000C91608F0A4C0FA01EC0DFD1DE491F0E03B
:102710004F01002E02C0880C991C0A94E2F737FD85
:1027200006C0FB018081E82CE0948E218083FF208D
:1027300061F0373054F45B01F0E8AF0EB11CE92CC6
:10274000E094F50180818E218083FFEFCF1ADF0AAC
:102750006F5F7F4FD5CF232F2E0D321709F4B0CFE7
:10276000BD016F5C7C4FD12CC12CC91608F069C02B
:10277000FA01EC0DFD1DE491F0E04F01002E02C0C6
:10278000880C991C0A94E2F737FD04C0FB01808194
:1027900088298083FF2051F0373044F45B01F0E852
:1027A000AF0EB11CF501808189298083FFEFCF1A1C
:1027B000DF0A6F5F7F4FD9CF6FEF70E00F2C02C041
:1027C000660F771F0A94E2F760957095772E232F96
:1027D0002E0D321709F474CFFD01EF5CFC4F6F0131
:1027E000B12CA12CA91638F5FA01EA0DFB1DE491D4
:1027F000F0E02F01002E02C0440C551C0A94E2F7B1
:1028000037FD05C0F6018081862384298083FF205F
:1028100059F037304CF44601F0E88F0E911CF4016A
:102820008081872185298083FFEFAF1ABF0A8FEF50
:10283000C81AD80AD7CF3F5F4C0F5D1FA058BF4FB3
:10284000C8CF3F5F4C0F5D1FA058BF4F86CF3F5F83
:102850004C0F5D1FA058BF4F4CCF6A0D7B1D232F1F
:102860002E0D321709F42CCFFD01EF5CFC4F6F01E8
:10287000B12CA12CA91688F5FB01EA0DFB1D849053
:10288000912C002E02C0880C991C0A94E2F78094C7
:102890009094FA01EA0DFB1D6490712C002E02C089
:1028A000660C771C0A94E2F737FD05C0F6018081BB
:1028B000882186298083FF2049F037303CF4F601D7
:1028C000E058FF4F8081892187298083FFEFAF1A6D
:1028D000BF0A8FEFC81AD80ACDCF3F5F4C0F5D1FDC
:1028E0006C0F7D1FA058BF4FBCCFC92ED12CFA0151
:1028F000E60FF71FAF5CBC4F00E810E00C191D0994
:10290000CC19DD09BE01660F771F41E050E06A0176
:102910000F2C01C0CC0C0A94EAF7592F2E2D792EDA
:10292000CF93DF93ED01EF96EF9622968590A590D9
:10293000FF2059F08C9C4001AC9C500137302CF4A6
:10294000E880B094EB20E928E99233233AF0EC9048
:10295000A094EA20E828ED920C94AF1411965A95B1
:1029600029F72A9551F0572D33951124E60FF11DC3
:10297000A00FB11DC00FD11DD9CFDF91CF91112470
:102980009FCECF92EF920F93CF93DF93DC01FA01AA
:1029900004913196E4904E5F5F4F2223D1F0C1E065
:1029A000D0E09E2D977011F4D0E0C0E0EE2DE695BA
:1029B000E695E695EC0FFD2FF11D0E9FE0010F9FB0
:1029C000D00D11242C9FC0012D9F900D1124480F74
:1029D000591F8AEFC82E30E020E0CD010E94D812A6
:1029E000DF91CF910F91EF90CF900895CF92EF921A
:1029F0000F93CF93DF93DC01FA0104913196E490B9
:102A00004E5F5F4F2223D1F0C1E0D0E09E2D977042
:102A100011F4D0E0C0E0EE2DE695E695E695EC0FDA
:102A2000FD2FF11D0E9FE0010F9FD00D11242C9F53
:102A3000C0012D9F900D1124480F591F82E0C82E10
:102A400030E020E0CD010E94D812DF91CF910F91AC
:102A5000EF90CF9008952D9A0895BC0190E080E00A
:102A60000C943C118FB18095807F669B88601C9B85
:102A700084600895AF92BF92CF92DF92EF92FF925F
:102A80000F931F93CF93DF936D3079F0C0911703AD
:102A9000D09118036A30B1F4109216031092150306
:102AA0002896D0931803C093170381E090E0DF913C
:102AB000CF911F910F91FF90EF90DF90CF90BF903B
:102AC000AF900895409115035091160385E0689FDB
:102AD000F0011124E656FD4F9A01C12C80E1E82E49
:102AE000A5E070E0CA1621F0CF0101967491FC01B7
:102AF00010E000E0B72FB170DB2E20383105D0F4A4
:102B0000CE01800F911F80349105A0F461E081FD1A
:102B100064E080FD660F82FD6295887FE89ED001AB
:102B20001124A20FF62EAF5CBC4F8C91DD20A9F0D2
:102B3000862B8C9376950F5F1F4F08301105D1F6C9
:102B4000C3942F5F3F4F86E0C812CACF4A5F5F4FE2
:102B50005093160340931503A8CFF0948F21E9CF2B
:102B6000CF93C82F0E943215982F9C2381E09C138D
:102B700080E0CF91089580E00C94450E0E94F411FE
:102B800080915C01882321F010925C0180E008951F
:102B900090915D01262F291B922F20910001921701
:102BA00040F49F5F9217A0F491E093BF889513BE05
:102BB000089581E080935C0160935D0180915A01EA
:102BC00090915B01019690935B0180935A0181E0A3
:102BD0000895CF92DF92EF92FF920F931F93CF93BE
:102BE000DF939C01FB01C0E1D7E2BE010E940E29E8
:102BF000AB0164836C9F80016D9F100D7C9F100D55
:102C00001124C901801B910B58EEC52E53E0D52E1F
:102C1000B6010E940E29EB0163836C9D70016D9DCE
:102C2000F00C7C9DF00C1124C9018E199F09801BAA
:102C3000910B64E670E00E940E29D62F628364E651
:102C4000D62EC901DD9D8019910911248E199F0985
:102C5000801B910B6AE070E00E940E2961839AE06C
:102C6000699F20191124DD9E2019112488E1C89F35
:102C7000200D11244295407F241B2083DF91CF91AA
:102C80001F910F91FF90EF90DF90CF900895E1EFAB
:102C9000F2E04AE0828193818A309105C0F420817C
:102CA0003181223131059CF4429FD001439FB00D08
:102CB0001124AB57BE4FA80FB91F8C91811107C0CB
:102CC000349683E0E130F80729F781E0089580E049
:102CD0000895089590E080E008952F923F924F92DA
:102CE0005F926F927F928F929F92AF92BF92CF929C
:102CF000DF92EF92FF920F931F93CF93DF93CDB7A5
:102D0000DEB728970FB6F894DEBF0FBECDBF6C01BB
:102D1000B62EBE016F5F7F4F0E94E915CE0101966E
:102D20001C0183E1E82EF12C04E010E0EB2DF0E033
:102D3000F887EF832601712C612CF101F481FE8369
:102D4000F11121C0B801012E000C880B990B0E94D3
:102D500088259B01AC0160E070E080E291E40E9474
:102D6000C8254B015C01C301B2010E948625A50163
:102D700094010E94C325181634F0C114D10479F5CA
:102D80000115110561F52E814FED5BE1B7018F81D2
:102D900098850E94F6140150110981E0281A310823
:102DA00095E0E90EF11C0F3F100739F628960FB693
:102DB000F894DEBF0FBECDBFDF91CF911F910F9171
:102DC000FF90EF90DF90CF90BF90AF909F908F904B
:102DD0007F906F905F904F903F902F9008952AE0E2
:102DE000D3CF2F923F924F925F926F927F928F92AA
:102DF0009F92AF92BF92CF92DF92EF92FF920F938A
:102E00001F93CF93DF9300D000D000D0CDB7DEB7B3
:102E100020E048EF51E070E060E08CE690E00E9436
:102E2000F614C0901103D0901203BE016F5F7F4F64
:102E3000C6010E94E915CE0101961C0195E2E92E1A
:102E4000F12C04E010E02601712C612CF101F481D9
:102E5000FE83F11123C0B801012E000C880B990BE1
:102E60000E9488259B01AC0160E070E080E291E463
:102E70000E94C8254B015C01C301B2010E94862556
:102E8000A50194010E94C325181644F0C114D10471
:102E900009F0B5C00115110509F0B1C02E814FED43
:102EA0005BE1B70188E790E00E94F6140150110938
:102EB00081E0281A310895E0E90EF11C0F3F100758
:102EC00029F6C0901303D0901403BE016F5F7F4FAB
:102ED000C6010E94E915CE0101961C0187E1E82E8A
:102EE000F12C02E010E02601712C612CF101F2813D
:102EF000FE83F11123C0B801012E000C880B990B41
:102F00000E9488259B01AC0160E070E080E291E4C2
:102F10000E94C8254B015C01C301B2010E948625B5
:102F2000A50194010E94C325181644F0C114D104D0
:102F300009F067C00115110509F063C02E8142EC4C
:102F400058E0B7018FE690E00E94F6140150110995
:102F500081E0281A310894E0E90EF11C0F3F1007B8
:102F600029F6F09005010F2D10E0BE016F5F7F4F35
:102F7000C8010E94E915EA80EE2009F444C02E2D14
:102F800042EC58E066E370E08FE690E00E94F614B1
:102F9000E980EE2009F449C02E2D42EC58E06AE3A6
:102FA00070E08FE690E00E94F61480911003882371
:102FB00019F088E080930401209104014EE251E071
:102FC00070E060E086E790E00E94F61426960FB667
:102FD000F894DEBF0FBECDBFDF91CF911F910F914F
:102FE000FF90EF90DF90CF90BF90AF909F908F9029
:102FF0007F906F905F904F903F902F9008952AE0C0
:103000004ECF2AE09CCFB801012E000C880B990B03
:103010000E94882520E030E040E251E40E94C32570
:1030200018160CF4ACCF2AE0ABCFB801110F880B07
:10303000990B0E94882520E030E040E85FE30E9481
:10304000C32518160CF4A8CFFF2009F4A5CF2AE059
:10305000A4CF0C940D25FF920F931F93CF93DF9372
:10306000EC01F62E08811981C8010E940D25F81681
:1030700021F06F2DC8010E941525CE01DF91CF915F
:103080001F910F91FF9008959F92AF92BF92CF92A0
:10309000DF92EF92FF920F931F93CF93DF9300D0B5
:1030A000CDB7DEB710920301DC01AA0FBB1FAA0F38
:1030B000BB1FA85EBE4F01EF12E0F8012D91322F29
:1030C000317030831182269530E033832283349629
:1030D00023E0E130F20791F7EE24E394F12C00971E
:1030E00011F0F12CE12C95E7C92E91E0D92ED601F3
:1030F000E1EFF2E040815181628173814D935D93F4
:103100006D937D93208131812E193F093183208376
:10311000228133812D5F3F4F33832283349623E016
:10312000E130F20739F790900F0380930F030E946C
:10313000471681116CC0E5E7F1E080819181892B10
:1031400009F073C081E080931003809110038823FD
:1031500009F45DC0A0901103B0901203809119038F
:1031600090911A038A159B05F0F481E0809308037F
:1031700080E190E09A83898363E1CE0101960E9409
:103180002B1881E190E09A8389836A2DCE01019604
:103190000E942B1882E190E09A8389836B2DCE01E7
:1031A00001960E942B1888E08093040190920F03EF
:1031B000A1EFB2E0E5E7F1E04191519161917191A8
:1031C0004D935D936D937D9321E0E538F207A1F770
:1031D000E094F094F80180819181A281B381F6019D
:1031E00081939193A193B1936F01F80180819181B3
:1031F0008E0D9F1D9183808382819381039693839B
:1032000082830C5F1F4FF3E001301F0719F70F9007
:103210000F90DF91CF911F910F91FF90EF90DF9072
:10322000CF90BF90AF909F900895349681E0E5389D
:10323000F80709F082CF89CF1F920F920FB60F9235
:1032400011248F939F938091E1009091E100937FEF
:103250009093E10083FF0FC01092E90091E09093FA
:10326000EB001092EC0092E39093ED00109230038B
:1032700098E09093F00082FF22C093E09093E900E1
:103280009091F200992319F09AE39093E8009091BD
:103290002103992341F090912103915090932103B0
:1032A000911101C05D9A90912F03992341F0909163
:1032B0002F03915090932F03911101C0289A84FFFE
:1032C00018C08091E2008E7E81608093E200809140
:1032D000E1008F7E8093E100809122038E7E8061E9
:1032E000809322039F918F910F900FBE0F901F909C
:1032F000189580FFF7CF8091E2008E7E80618093E9
:10330000E2008091E1008E7E8093E10080912203B3
:103310008E7E8160E5CF1F920F920FB60F9211241F
:10332000CF92DF92EF92FF920F931F932F933F93D1
:103330004F935F936F937F938F939F93AF93BF93BD
:10334000EF93FF93CF93DF93CDB7DEB76C97DEBFDC
:10335000CDBF1092E9008091E80083FF25C068E0AE
:10336000CE0145960E946C1082EF8093E8008D8913
:1033700087FF39C09091E80090FFFCCF982F90769E
:1033800009F034C19E894F89588D2F89F88C91118D
:1033900031C0803861F5809120038093F100109254
:1033A000F1008EEF8093E8006C960FB6F894DEBFC4
:1033B0000FBECDBFDF91CF91FF91EF91BF91AF9144
:1033C0009F918F917F916F915F914F913F912F913D
:1033D0001F910F91FF90EF90DF90CF900F900FBE55
:1033E0000F901F9018959EEF9093E800C7CF109212
:1033F000F100D5CF913059F48111D3CF413051052F
:1034000081F6809120038D7F80932003CACF933073
:1034100049F48111C6CF4130510519F6809120033E
:103420008260F2CF953041F48091E80080FFFCCFBC
:1034300020682093E300B5CF963009F0A9C00B8D2A
:103440001C8D22E01092E90010921E0310921D03C1
:10345000F2122EC010921C0310921B030E943B100C
:103460001F8299E09983FA8291E09E8390EA98877F
:103470009AEF998720911D0330911E03275F3F4FDC
:103480003C832B838D831092E90010921E031092CF
:103490001D0310931C0300931B0349E050E0BE0181
:1034A0006F5F7F4F80E00E9415100E943B1079CF24
:1034B00010931C0300931B030E94520FDC01129611
:1034C0000D911C910115110509F451C1D801ED911F
:1034D000FC910480F581E02DBE016B5E7F4FC80139
:1034E0000995009709F03EC1F80100851185EACFE2
:1034F000F3E0FF120EC08F89882309F440C08230A8
:1035000061F440E867E087ED9BE10E94681C81114F
:1035100048CF81E28093EB0047CF813029F440E827
:103520006BE08BEC9BE1F1CF833099F70E94520F57
:10353000DC011296ED90FC908E010F5F1F4F680129
:10354000E114F10479F0D701ED91FC910680F78147
:10355000E02DB801C7010995080F111DF701E0849E
:10356000F184EECFD8011C92F60101900020E9F71A
:103570003197BF016C197D0940E0C601C6CF65EBEC
:103580007BE1FB01449150E080E80E94151009CFD7
:10359000973009F4BECF983021F481E08093F10098
:1035A00000CF993009F0FDCE837009F0B2CFE5E38A
:1035B000F1E081E031E096E32191222371F08093E4
:1035C000E9003093EB00DF0111972C912093EC0080
:1035D0009093ED008F5F873079F78EE78093EA0054
:1035E0001092EA008F8980933003DBCE8B8D9C8D07
:1035F0001092E90010921E0310921D0390931C0379
:1036000080931B03898D811192C08E899D89913A87
:1036100049F4813209F07DCF47E050E06AE071E083
:1036200080E0B3CF913209F074CF833269F48F898F
:10363000988DB0E0A0E08093060190930701A093DD
:103640000801B0930901ADCE803269F48091E800A1
:1036500082FFFCCF67E08AE091E00E946C108BEF64
:103660008093E8009ECE823209F09BCE8F898093B2
:103670001101EEEFFFE7859194918B3F9C4D51F145
:10368000E0E0F8E080910A0190910B01A0910C011B
:10369000B0910D01803B9440A105B105F1F48091FA
:1036A000110180FD1AC0EE3F8AE0F80789F587E72F
:1036B00097E7918380838091600080931F0388E166
:1036C0009BE00FB6F894A895809360000FBE90938E
:1036D000600067CEEEEFFAE0D5CF80819181873729
:1036E000974709F05ECEA89580916000886180932D
:1036F000600080911F0380936000EE3F2AE0F20794
:1037000089F08091FE0A9091FF0A9183808349CECF
:10371000808191818737980751F29093FF0A8093B7
:10372000FE0AC5CF1092FF0A1092FE0A3ACE0E94FE
:10373000520FDC0112960D911C910115110509F42F
:10374000E8CED801ED91FC910190F081E02DBE0111
:103750006B5E7F4FC8010995811123CEF80100856A
:103760001185EBCF181619060CF41BCED2CEF1E062
:10377000FF12BECE69EB7BE104CF1F920F920FB612
:103780000F9211242F933F938F939F93AF93BF93E7
:103790008091680190916901A0916A01B0916B01DB
:1037A0003091670123E0230F2D3758F50196A11DB5
:1037B000B11D209367018093680190936901A093E4
:1037C0006A01B0936B0180916C0190916D01A091A1
:1037D0006E01B0916F010196A11DB11D80936C0126
:1037E00090936D01A0936E01B0936F01BF91AF9163
:1037F0009F918F913F912F910F900FBE0F901F902F
:10380000189526E8230F0296A11DB11DD2CF1F9255
:103810000F920FB60F9211242F933F934F935F9304
:103820006F937F938F939F93AF93BF93EF93FF9388
:103830008091630190916401A0916501B09166014E
:10384000892B8A2B8B2B09F440C080916201811156
:103850000BC088B190E4892788B9809161018823E1
:1038600019F088B1805888B9809163019091640102
:10387000A0916501B0916601181619061A061B067B
:103880009CF48091630190916401A0916501B091D5
:1038900066010197A109B1098093630190936401C6
:1038A000A0936501B0936601FF91EF91BF91AF9135
:1038B0009F918F917F916F915F914F913F912F9148
:1038C0000F900FBE0F901F9018950E941412ECCF0E
:1038D000EF92FF920F931F93CF93DF93F82E192F40
:1038E000E62E042F81E0860F880F0E94E70F83E009
:1038F0000E94E70FCF2DD12FEC0EFD2EF11CCE151F
:10390000DF05B9F007FF13C0FE0184910E94E70FA5
:10391000182F80E00E94E70F812321968111EFCFBD
:10392000DF91CF911F910F91FF90EF9008958881C3
:10393000EDCF81E0F5CFE1E3F7E01382128288EE6C
:1039400093E0A0E0B0E084839583A683B7838FE300
:1039500091E0918380838FEF9FEF95878487E3E9E0
:10396000F7E01382128281E591E09183808382E403
:103970009EE09093900780938F0780E090E890936B
:103980008E0780938D0746983E9A47983F9A80917C
:1039900012019091130190939207809391070895DB
:1039A000CF93DF9300D000D01F92CDB7DEB77894CD
:1039B00084B5826084BD84B5816084BD85B5826034
:1039C00085BD85B5816085BD80916E0081608093E5
:1039D0006E0010928100809181008260809381004E
:1039E000809181008160809381008091800081605E
:1039F00080938000809191008260809391008091FB
:103A0000910081608093910080919000816080930B
:103A100090008091C10084608093C1008091C100BA
:103A200082608093C1008091C10081608093C10059
:103A30008091C30081608093C3008091C000826048
:103A40008093C0008091C20081608093C200809109
:103A50007A00846080937A0080917A0082608093FB
:103A60007A0080917A00816080937A0080917A0058
:103A7000806880937A001092300310922003109295
:103A800022038091D70081608093D70080EA8093E1
:103A9000D80089B5806189BD89B5826089BD09B4C6
:103AA00000FEFDCF61E070E080E090E00E943C11FC
:103AB0008091D8008F7C80618093D8008091E00055
:103AC000807F8093E0008091E1008E7E8093E10012
:103AD0008DE08093E200559A209A81EC80937C00DF
:103AE00085B1806F85B984B1877E84B984B1876ED2
:103AF00084B95E9A5F988AB1806D8AB9769A6E9819
:103B000081B3806F81BB899880B38D7080BB80E565
:103B10008CBD81E08DBD85E090E00E942D155F9AFF
:103B200085E090E00E942D155E985C98E5EBF8E04A
:103B300084918EBD00000DB407FEFDCF319628E0C4
:103B4000E23CF207A9F75C9A81E8809364008091D7
:103B500065008160809365000E94BB1580E80E942B
:103B6000B01502E010E08823A9F05C9885EA8EBDCC
:103B700000000DB407FEFDCF5C9A2E982F982D986B
:103B80008091640080628093640081E083BF8895A7
:103B900013BEFCCF84E00E94B015882309F440C016
:103BA0002D9884E80E94B0158823C1F00E942B153F
:103BB00088EC90E00E942D152F981A8309836FEFEF
:103BC000CE0101960E942B1884EF91E00E942D15E2
:103BD0002F9A84E80E94B0158111FBCF84E10E94E6
:103BE000B0158823C1F00E942B1588EC90E00E944C
:103BF0002D152E981A83098360E0CE0101960E944C
:103C00002B1884EF91E00E942D152E9A84E10E94DA
:103C1000B0158111FBCF88EC90E00E942D15BACF32
:103C20000E942B1582E090E00E942918882309F455
:103C3000ECC03E9A3F9A81E08093700181E090E071
:103C40000E942918182F147081FF10C011112E988E
:103C500051EFE52EFF24FA9480E40E94B0158823EA
:103C600009F4D8C02E9A2F9A0E942B1582E390E077
:103C70000E942D150E9432158111F8CF81E28093A8
:103C800000010E94BE15882391F10E94540E1092EB
:103C9000180310921703109216031092150300E4F4
:103CA00020E84BEF58E070E060E090E080E00E9498
:103CB000610EBE016F5F7F4F82E090E00E94E915C8
:103CC0002A81222309F403C142EC58E06FE270E03C
:103CD00085E090E00E94F614298142EC58E063E30D
:103CE00070E085E090E00E94F6140E94BB1584E02D
:103CF0000E94B015882309F492C50E94BE15382E83
:103D0000882309F48CC50E94540E10921803109257
:103D10001703109216031092150362E370E083E913
:103D200092E00E94BC120E94F11620E041E757E1A8
:103D300070E060E090E080E00E94C1141A82198275
:103D400080E190E00E942918833151F481E190E0F4
:103D50000E940D25898382E190E00E940D258A83CF
:103D600009811A8110931A030093190320E04FED83
:103D700050E164E070E084E190E00E94F61464E4B5
:103D8000C8010E946D160E94BB1588E00E94B01504
:103D900081119FC064E670E080E090E00E943C11D9
:103DA00021E04FED50E164E070E084E190E00E949A
:103DB000F61464E4C8010E946D160E94BB1588E0E9
:103DC0000E94B015811185C064E670E080E090E04B
:103DD0000E943C1122E04FED50E164E070E084E18C
:103DE00090E00E94F61464E4C8010E946D160E94DF
:103DF000BB1588E00E94B01581116BC064E670E0CD
:103E000080E090E00E943C11B1CF109270013E988A
:103E10003F9814CF112331F034E0E316F10411F48C
:103E20002E9A2F9881E00E94450E00E128E545E09A
:103E300058E0B70184E190E00E94610E0E94BB153A
:103E40008FE090E00E942D154FEFE41AF40A89E10B
:103E5000E816F10409F000CF112311F02F9A2D98E4
:103E600080E991E00E942D150E942B1581E090E0E1
:103E70000E94291880FFFACE8AE090E00E9429185B
:103E80009FEF980F9E3F08F0F1CE22E330E0309391
:103E900016032093150328E330E030931803209392
:103EA00017030BE010E0682F83E997E00E943A15B2
:103EB000C8010E9429180F5F1F4F0131110599F7A2
:103EC0000E94BB1588EE93E00E942D15CFCE2AE00C
:103ED000FBCE20E041E757E170E060E090E080E059
:103EE0000E94F6140E94BB15109214031092130343
:103EF000109212031092110381E080930501109239
:103F00001003A0E2B3E0B0931301A093120199E073
:103F10009093040110920F0310920E0310920D0360
:103F200010920C0310920B0310920A0310920903D3
:103F3000B0939207A0939107809303011092080316
:103F40000E94F411611571058105910511F00E941F
:103F5000042562E370E08DE49AE00E94BC1288E0E0
:103F60000E94B0158111FBCF49E352E025E831E012
:103F700090E080E0F901E80FF91F1082FA01E80FE4
:103F8000F91F108201968A309105A1F7265F3F4FF5
:103F9000465F5F4FB2E029333B0751F70E94B524DB
:103FA00027E030E040E050E00E942325CB010E9452
:103FB00044180E94B52427E030E040E050E00E9421
:103FC0002325609304010E94F4117093070360930A
:103FD0000603442443944AE0242E509010035110C9
:103FE000BEC30E94F4112091060330910703621BA7
:103FF000730B70930A03609309030E94321585FFC7
:10400000409203010E94321587FD08C040920201D0
:104010000E94F41170937401609373010E94321531
:1040200084FD08C0409201010E94F4117093720156
:104030006093710180E40E94B015882309F450C197
:10404000EFEFFFEFF0930C03E0930B0380E40E948B
:10405000B0158111FBCF21EF622E22E0722E05E711
:1040600011E0D801F30140815181628173814D9348
:104070005D936D937D938281938120910D033091A7
:104080000E03820F931F93838283349623E0E130E3
:10409000F20749F70E944716811110C0A1EFB2E064
:1040A000E5E7F1E041915191619171914D935D93FB
:1040B0006D937D9331E0E538F307A1F780910B0311
:1040C00090910C038F3F980709F09FC180910F03D7
:1040D0008630B9F16091F5027091F6024091F702D5
:1040E0005091F802E1EFF2E080819181861B970BFD
:1040F00022813381241B350BDB01A21BB30BB1835F
:10410000A083840F951F938382833496B3E0E130BC
:10411000FB0751F70E944716811113C0A1EFB2E0CF
:10412000E5E7F1E041915191619171914D935D937A
:104130006D937D9395E8E92E91E0F92EEE16FF063A
:1041400089F72091090330910A038091910790919A
:1041500092078217930708F046C0A5E7B1E0E1EFA8
:10416000F2E040815181628173814D935D936D9343
:104170007D9380819181019691838083349623E0A1
:10418000E130F20771F70E944716811126C0D8016D
:104190008D919C911197289EF001299EF00D11247C
:1041A000EB57FE4F12968D919C91E80FF91F4082BC
:1041B0000C5F1F4FB1E005381B0749F780910401E0
:1041C00090E00E9444180E94B52427E030E040E0CF
:1041D00050E00E942325609304010E94F411709323
:1041E00007036093060349E352E025E831E090E0DD
:1041F00080E0FA01E80FF91FD901A80FB91F6C91EF
:10420000608301968A309105A1F7265F3F4F465F94
:104210005F4FE2E029333E0751F71092ED02109212
:10422000EE021092EF021092F0020091130310912F
:104230001403F0900501E0911201F09113017FE267
:10424000872E72E0972E42E130E020E0A1E1AA2E15
:10425000B12C2A9C60012B9CD00C112490E080E0B2
:1042600070E060E0D401A60FB71F5C915111019678
:10427000DB01AC0DBD1DAB57BE4F5C936F5F7F4F35
:104280006A30710579F70A970CF004C181E0A81A29
:10429000B10841509AE0891A91084111DACF109380
:1042A000140300931303F0920501F0931301E093BC
:1042B000120145E851E010E000E00217130709F48D
:1042C000FFC090E080E0FA01E80FF91F108201962C
:1042D0008A309105C1F70F5F1F4F465F5F4FEDCFEB
:1042E00088E00E94B015882369F0EE24E394F12C55
:1042F000F0920C03E0920B0388E00E94B01581114C
:10430000FBCFA9CE80E80E94B0158823F9F00E9467
:10431000F4112091020121110AC020917301309102
:104320007401621B730B693C710508F494CE109202
:1043300002012FEF3FEF30930E0320930D036FE048
:1043400070E080E090E00E943C1185CE80E10E9408
:10435000B0158823C9F00E94F411209171013091A9
:104360007201621B730B80910101811104C0693CD1
:10437000710508F470CE1092010181E090E09093F5
:104380000E0380930D03DBCF80E20E94B0158823DB
:1043900061F080910301882309F45DCEAFE0B0E0C5
:1043A000B0939207A093910756CE84E00E94B01577
:1043B000882309F450CE62E370E08DE49AE00E9415
:1043C000BC1284E00E94B0158111FBCF20E04BEFBE
:1043D0005CE06CE070E086E390E00E94F6140E94DE
:1043E000BB150E94321582FFFCCF84E00E94B015FD
:1043F0008111FBCF62E370E08DE49AE00E94BC1271
:104400006CE271E080E090E09ECF019709F099CED8
:1044100080910F03863009F494CE4091F5025091BB
:10442000F6026091F7027091F80223E030E0E1EFCC
:10443000F2E080819181841B950BA281B381A61B40
:10444000B70B7A01EA1AFB0AF182E082860F971F06
:1044500093838283349683E0E130F80751F721504B
:10446000310929F70E94471681116BCEA1EFB2E006
:10447000E5E7F1E041915191619171914D935D9327
:104480006D937D9385E8E82E81E0F82EEE16FF0609
:1044900089F757CED901A351BD4F4C932F5F3F4FA2
:1044A0000F5F1F4FC8010E940E29892B09F0F1CE22
:1044B000F394E536F10508F4ECCEE456F109E9CEC3
:1044C0000115110581F062E370E086E291E00E943F
:1044D000BC120230110509F434C10CF019C10130CD
:1044E000110509F423C120E041E757E170E060E0E5
:1044F00090E080E00E94F614D30112968D919C9179
:10450000B6E0B89FB001B99F700D11246E5F7F4F68
:10451000F301208131814AEF4203C001439F900D96
:10452000112425E04FEA5DE08A599F4F0E94C11493
:1045300084E0680E711C91E0691693E07906E1F65B
:104540006DEE662E62E0762E8301D8018D918D018D
:104550008111532CE1EFF2E0E017F107B1F755209C
:1045600071F149E3A42E42E0B42E56E6E52EF12C7B
:1045700032E0832E912CD12CC12CF501EC0DFD1DC8
:104580008081882339F023E04FEA5DE0B401C70160
:104590000E94C114FFEFCF1ADF0A26E0820E911CA1
:1045A0003AE0C316D10449F74AE0A40EB11C86E0F4
:1045B000E81AF1089AEFE9169FEFF906C9F62DEE11
:1045C000E22E22E0F22ED7012D917D01222389F0E7
:1045D0002150330B4AEF4203C001439F900D112439
:1045E00020E04DE45DE062E070E08A599F4F0E9458
:1045F000F614E016F10639F7552099F00E94F116ED
:1046000020E041E757E170E060E090E080E00E9448
:10461000C1140E94BB1566E970E080E090E00E9442
:104620003C11D3012D913D01222389F02150330B00
:104630004AEF4203C001439F900D112421E04DE455
:104640005DE062E070E08A599F4F0E94F614E61424
:10465000F70439F7552099F00E94F11620E041E760
:1046600057E170E060E090E080E00E94C1140E9499
:10467000BB1566E970E080E090E00E943C1195E88F
:10468000C92E91E0D92E06E610E082E0A82EB12CCA
:10469000F12CE12CF601EE0DFF1D8081882339F00D
:1046A00023E04FEA5DE0B501C8010E94C1148FEF1D
:1046B000E81AF80A96E0A90EB11CAAE0EA16F1047D
:1046C00049F7BAE0CB0ED11C065011090A3FEFEFB3
:1046D0001E07D9F60E94F11620E041E757E170E08D
:1046E00060E090E080E00E94C1140E94BB1510922F
:1046F0000E0310920D0310920C0310920B03809185
:10470000120190911301909392078093910765CCC9
:1047100003301105E9F00430110509F0E4CE809171
:10472000110390911203805E9C4F06C0809111038B
:10473000909112038C599F4F909312038093110311
:10474000D2CE8091110390911203845D9E4FF4CFDD
:1047500080911103909112038C509E4FEDCF809168
:10476000080320E0882309F462C04DEA5EE064E0BB
:1047700070E084E190E00E94F61462E280911103FF
:10478000909112030E946D160E94BB1580917100DA
:104790008D7F8093710081E08093050387E49EE024
:1047A0009093040380930303909302038093010387
:1047B0000E94141207E310E060E08BE00E94A61054
:1047C00061E08AE00E94A61061E089E00E94A610E4
:1047D00063E270E080E090E00E943C1161E08BE0D9
:1047E0000E94A61061E08AE00E94A61060E089E0C5
:1047F0000E94A61066E970E080E090E00E943C1103
:1048000001501109C9F661E089E00E94A61061E03B
:104810008AE00E94A61061E08BE00E94A61080E072
:1048200090E0892B09F463CA0E94000060CA45ED3C
:104830005DE065E070E080E490E00E94F6140E9484
:10484000BB1564EF71E08CED90E00E94BC1204E0B7
:1048500010E061E089E00E94A61060E08AE00E941A
:10486000A61066E970E080E090E00E943C1160E0F4
:1048700089E00E94A61061E08AE00E94A61066E925
:1048800070E080E090E00E943C110150110909F7AE
:1048900061E089E00E94A61061E08AE00E94A61013
:1048A00068EC70E087E390E00E94BC1268EC70E076
:1048B00080E090E00E943C1168EE73E08CE190E0B3
:1048C0000E94BC1268EE73E080E090E00E943C1110
:1048D000A6CF8F929F92AF92BF92CF92DF92EF922C
:1048E000FF92CF93DF93EC01688179818A819B816C
:1048F000611571058105910521F464E279ED8BE57F
:1049000097E02DE133EF41E050E00E94232549017B
:104910005A019B01AC01A7EAB1E40E9442256B0158
:104920007C01ACEEB4EFA50194010E945025C60EA7
:10493000D71EE81EF91EF7FE06C081E0C81AD1088E
:10494000E10880E8F80AC882D982EA82FB82C701BE
:10495000B6019F77DF91CF91FF90EF90DF90CF90DE
:10496000BF90AF909F908F9008958F929F92AF923B
:10497000BF92CF92DF92EF92FF92609114017091FB
:10498000150180911601909117016115710581053E
:10499000910521F464E279ED8BE597E02DE133EFA9
:1049A00041E050E00E94232549015A019B01AC01DE
:1049B000A7EAB1E40E9442256B017C01ACEEB4EFA2
:1049C000A50194010E945025C60ED71EE81EF91EAF
:1049D000F7FE06C081E0C81AD108E10880E8F80AAD
:1049E000C0921401D0921501E0921601F0921701C5
:1049F000C701B6019F77FF90EF90DF90CF90BF90F7
:104A0000AF909F908F90089560931401709315015B
:104A100080931601909317010895F999FECF92BDE6
:104A200081BDF89A992780B50895262FF999FECF70
:104A30001FBA92BD81BD20BD0FB6F894FA9AF99ABB
:104A40000FBE01960895052E97FB1EF400940E9458
:104A50003A2557FD07D00E94552507FC03D04EF498
:104A60000C943A2550954095309521953F4F4F4FE6
:104A70005F4F089590958095709561957F4F8F4F0A
:104A80009F4F08950E947725A59F900DB49F900D8C
:104A9000A49F800D911D11240895B7FF0C94422509
:104AA0000E944225821B930B0895A1E21A2EAA1B95
:104AB000BB1BFD010DC0AA1FBB1FEE1FFF1FA217CE
:104AC000B307E407F50720F0A21BB30BE40BF50BCB
:104AD000661F771F881F991F1A9469F76095709554
:104AE000809590959B01AC01BD01CF010895A29FD7
:104AF000B001B39FC001A39F700D811D1124911DB2
:104B0000B29F700D811D1124911D0895E89409C074
:104B100097FB3EF490958095709561957F4F8F4FF0
:104B20009F4F9923A9F0F92F96E9BB279395F69506
:104B3000879577956795B795F111F8CFFAF4BB0F84
:104B400011F460FF1BC06F5F7F4F8F4F9F4F16C0E8
:104B5000882311F096E911C0772321F09EE8872F72
:104B6000762F05C0662371F096E8862F70E060E02E
:104B70002AF09A95660F771F881FDAF7880F9695A7
:104B8000879597F908950E94522608F48FEF0895AB
:104B9000FA01EE0FFF1F309621053105A1F16115D5
:104BA000710561F48038BFE39B0749F16894903840
:104BB000810561F08038BFEF9B0741F099234AF5EA
:104BC000FF3FE1053105210519F1E8940894E795C7
:104BD000D901AA2329F4AB2FBE2FF85FD0F310C060
:104BE000FF5F70F4A695E0F7F73950F019F0FF3A3F
:104BF00038F49F779F930DD00F9007FC905808953D
:104C000046F00C947C2660E070E080E89FE3089515
:104C10004FE79F775F934F933F932F930E941927FE
:104C20002F913F914F915F910E9495270C942026E0
:104C300029F416F00C9476260C94C8260C947C2645
:104C40000E94AE26A8F39638A0F707F80F92E894D2
:104C50002BE33AEA48EB5FE70E94AB270F920F92F3
:104C60000F924DB75EB70F920E946127ECEAF0E019
:104C70000E947F264F915F91EF91FF91E595EE1F86
:104C8000FF1F49F0FE57E0684427EE0F441FFA95D6
:104C9000E1F74195550B0E94DB260F9007FE0C941F
:104CA000CF260895990F0008550FAA0BE0E8FEEFF4
:104CB00016161706E807F907C0F012161306E407E0
:104CC000F50798F0621B730B840B950B39F40A26D9
:104CD00061F0232B242B252B21F408950A2609F4B7
:104CE000A140A6958FEF811D811D089597F99F67BB
:104CF00080E870E060E008959FEF80EC0895DF9316
:104D0000CF931F930F93FF92EF92DF927B018C0161
:104D1000689406C0DA2EEF010E94A827FE01E894ED
:104D2000A5912591359145915591A6F3EF010E94EA
:104D30001A28FE019701A801DA9469F7DF90EF9035
:104D4000FF900F911F91CF91DF91089557FD9058DB
:104D5000440F551F59F05F3F71F04795880F97FB3F
:104D6000991F61F09F3F79F08795089512161306F9
:104D70001406551FF2CF4695F1DF08C01616170628
:104D80001806991FF1CF869571056105089408955D
:104D9000E894BB2766277727CB0197F908959B01F5
:104DA000AC0160E070E080E89FE30C946F280C9405
:104DB00076260C94E1280E94AE26D8F39923C9F3F5
:104DC000940F511DA3F39150504094F059F0882353
:104DD00032F0660F771F881F91505040C1F79E3FF9
:104DE00051052CF7880F911D9695879597F9089591
:104DF0005F3FACF0983E9CF0BB2786957795679512
:104E0000B79508F4B1609395C1F7BB0F58F711F44B
:104E100060FFE8CF6F5F7F4F8F4F9F4FE3CF0C94C2
:104E2000C92616F00C94E1280C947C2668940C9406
:104E300076260E94AE26A8F39923C1F3AEF3DF9342
:104E4000CF931F930F93FF92C92FDD2788232AF05A
:104E50002197660F771F881FDAF720E030E040E8DF
:104E60005FEB9FE3883920F0803E38F021968F7702
:104E70000E940328E4EDF0E004C00E940328E1E072
:104E8000F1E00E947F268B01BE01EC01FB2E6F57E3
:104E900071097595771F880B990B0E94882528E169
:104EA00032E741E35FE30E94A827AF2D9801AE01EE
:104EB000FF900F911F91CF91DF910E941A280C94BF
:104EC000FD28FA01DC01AA0FBB1F9B01AC01BF57F3
:104ED00028F4222733274427507820C0B75190F474
:104EE000AB2F0024469537952795011CA395D2F347
:104EF000002071F0220F331F441FB395DAF30ED058
:104F00000C94022861307105A0E88A07B94630F494
:104F10009B01AC016627772788279078309621F08F
:104F2000208331834283538308950E94A8270C94E1
:104F3000FD280E94EF2838F00E94F62820F09523E3
:104F400011F00C9476260C947C2611240C94C9261E
:104F50000E94A62670F3959FC1F3950F50E0551F50
:104F6000629FF001729FBB27F00DB11D639FAA27BE
:104F7000F00DB11DAA1F649F6627B00DA11D661F0D
:104F8000829F2227B00DA11D621F739FB00DA11D2E
:104F9000621F839FA00D611D221F749F3327A00DE8
:104FA000611D231F849F600D211D822F762F6A2F84
:104FB00011249F5750409AF0F1F088234AF0EE0FE9
:104FC000FF1FBB1F661F771F881F91505040A9F716
:104FD0009E3F510580F00C9476260C94C9265F3FC5
:104FE000E4F3983ED4F3869577956795B795F79552
:104FF000E7959F5FC1F7FE2B880F911D96958795CA
:1050000097F908955058BB27AA270E941A280C9494
:10501000FD280E94EF2838F00E94F62820F039F48D
:105020009F3F19F426F40C947C260EF4E095E7FBE0
:105030000C947626E92F0E94A62658F3BA17620729
:1050400073078407950720F079F4A6F50C94C82619
:105050000EF4E0950B2EBA2FA02D0B01B901900193
:105060000C01CA01A0011124FF27591B99F0593FD7
:1050700050F4503E68F11A16F040A22F232F342F1F
:105080004427585FF3CF469537952795A795F0406D
:105090005395C9F77EF41F16BA0B620B730B840B82
:1050A000BAF09150A1F0FF0FBB1F661F771F881F3A
:1050B000C2F70EC0BA0F621F731F841F48F4879592
:1050C00077956795B795F7959E3F08F0B0CF939584
:1050D000880F08F09927EE0F9795879508950E94FD
:1050E00083280C94FD280E94F62858F00E94EF288F
:1050F00040F029F45F3F29F00C94762651110C946E
:10510000C9260C947C260E94A62668F39923B1F345
:10511000552391F3951B550BBB27AA2762177307DD
:10512000840738F09F5F5F4F220F331F441FAA1F71
:10513000A9F335D00E2E3AF0E0E832D0915050402D
:10514000E695001CCAF72BD0FE2F29D0660F771FDB
:10515000881FBB1F261737074807AB07B0E809F0C1
:10516000BB0B802DBF01FF2793585F4F3AF09E3F46
:10517000510578F00C9476260C94C9265F3FE4F331
:10518000983ED4F3869577956795B795F7959F5F89
:10519000C9F7880F911D9695879597F90895E1E0D5
:1051A000660F771F881FBB1F621773078407BA0734
:1051B00020F0621B730B840BBA0BEE1F88F7E0958F
:1051C00008959F3F31F0915020F48795779567952A
:1051D000B795880F911D9695879597F908950024A6
:1051E0000A941616170618060906089500240A944C
:1051F00012161306140605060895092E0394000CD2
:1052000011F4882352F0BB0F40F4BF2B11F460FF60
:1052100004C06F5F7F4F8F4F9F4F0895AA1BBB1B2A
:1052200051E107C0AA1FBB1FA617B70710F0A61BA6
:10523000B70B881F991F5A95A9F780959095BC01C7
:10524000CD010895EE0FFF1F0590F491E02D099414
:04525000F894FFCF00
:10525400100101010801FFFFFFFF00E10000000051
:1052640000002003010000000105030702050407F4
:1052740003050406030504070305070602050307DF
:105284000203040500C180810000000000000066E4
:105294000F6F11870F7C0FCD0F8B0FA90F0000002C
:0A52A400003A1579106A1669160029
:00000001FF
